:1000000064EF03F00000000000EF00F000000000CB
:0A0010000000000000000000F3D71C
:0C001C00100E0D6E0D2EFED7000012001D
:10002800080E0C6E230E0D6E0D2EFED70C2EFCD76F
:020038001200B4
:04003A0000001200B0
:10003E0049BE02D0819401D0818449BC02D0819600
:10004E0001D0818649BA02D0819801D0818849B801
:10005E0002D0819A01D0818A39B002D0818E01D02E
:10006E00819E818CE3DF819C49B602D0819401D0C0
:10007E00818449B402D0819601D0818649B202D0E2
:10008E00819801D0818849B002D0819A01D0818AAD
:10009E0039B002D0818E01D0819E818CC7DF819CC8
:0C00AE0039A002D0BADF01D0B2DF12008E
:1000BA00446A466A476A100E486E040E475C29E293
:1000CA00F00E836E120E006E000E016E830E002477
:1000DA00E16E0F0E0120E26E481C006E00C0E6FFC2
:1000EA00A7DFA6DF0F0E8314006E00C045F0005292
:1000FA000AE046C044F0455204E04532459E442A8F
:10010A00FAD7040E476E48364890040E4626472A08
:08011A00D4D744C000F012002C
:0C012200399044C049F08ADF3980120097
:10012E004450390806E3300E445C03E3010E006EC2
:06013E0001D0006A12006E
:100144000B6A0A6A096A00500402F4CF09F0F3CF7B
:1001540008F001500502F4CF0BF0F3CF0AF0005081
:100164000502F3500926F4500A22E86A0B220150D2
:100174000402F3500926F4500A22E86A0B2208C04C
:1001840000F009C001F00AC002F00BC003F0120035
:100194003CC0E9FF3DC0EAFFEECF3EF0000E3F6EEB
:1001A400000E3F6E000E3F1802E1200E3E1807E0DD
:1001B400000E3F1802E1090E3E1801E003D03C4A4C
:1001C4003D2AE6D7406A416A426A436A000E3F18F4
:1001D40002E12D0E3E1805E1424A432A3C4A3D2ADB
:1001E40008D0000E3F1802E12B0E3E1802E13C4AF3
:1001F4003D2A3CC0E9FF3DC0EAFFEECF3EF0000ED1
:100204003F6E000E3F6E3EC044F08FDF005218E098
:1002140040C000F041C001F00A0E046E000E056EED
:100224008FDF300E3E5C026E000E3F58036E0250AC
:100234000024406E03500120416E3C4A3D2AD9D728
:100244004250431008E040500008006E41C001F0E5
:10025400000E015604D040C000F041C001F012006D
:100264000FD0800E3C6E19D0C00E3C6E16D0940E8A
:100274003C6E13D0D40E3C6E10D0800E3C6E0DD06C
:100284003C50010AEEE03C50020AEEE03C50030A06
:10029400EEE03C50040AEEE0F0D73D04006E3C5022
:1002A400002600C03CF0398000C049F0C6DE399019
:0A02B4003EC049F0C2DE398012009E
:1002BE003C6AFCDE00C03CF00050000AD8B464D0AA
:1002CE0030D0370E3C6E5DD0380E3C6E5AD0390EA3
:1002DE003C6E57D02F0E3C6E54D0340E3C6E51D027
:1002EE00350E3C6E4ED0360E3C6E4BD02A0E3C6E0A
:1002FE0048D0310E3C6E45D0320E3C6E42D0330E9D
:10030E003C6E3FD02D0E3C6E3CD0450E3C6E39D02F
:10031E00300E3C6E36D03D0E3C6E33D02B0E3C6E06
:10032E0030D03C50010ACDE03C50020ACDE03C50AA
:10033E00030ACDE03C50040ACDE03C50050ACDE066
:10034E003C50060ACDE03C50070ACDE03C50080A6E
:10035E00CDE03C50090ACDE03C500A0ACDE03C50BD
:10036E000B0ACDE03C500C0ACDE03C500D0ACDE01E
:10037E003C500E0ACDE03C500F0ACDE03C50100A26
:0A038E00CDE03CC000F000D01200EA
:100398000FD0800E3C6E19D0C00E3C6E16D0940E55
:1003A8003C6E13D0D40E3C6E10D0800E3C6E0DD037
:1003B8003C50010AEEE03C50020AEEE03C50030AD1
:1003C800EEE03C50040AEEE0F0D73D04006E3C50ED
:1003D800002600C03CF000C049F02DDE3990406A8C
:1003E80040503E24E96E000E3F20EA6EEE520BE0CC
:1003F80040503E24E96E000E3F20EA6EEECF44F0F6
:0A0408008CDE402AEDD73980120087
:1004120055DF00C038F0CBD03850000A1DE038C09C
:1004220044F084DE005218E0898038C02EF0010EBC
:100432001C6E020E3C6E080E3D6E38C03EF011DF9F
:10044200030E0B6E080E0C6E770E0D6E0D2EFED780
:100452000C2EFCD70B2EFAD7BCD03850000A1CE069
:1004620038C044F063DE005217E038C02FF0020EAD
:100472001C6E020E3C6E090E3D6E38C03EF0F1DE7F
:10048200030E0B6E080E0C6E770E0D6E0D2EFED740
:100492000C2EFCD70B2EFAD79CD03850000A1CE049
:1004A20038C044F043DE005217E038C030F0030E8B
:1004B2001C6E020E3C6E0A0E3D6E38C03EF0D1DE5E
:1004C200030E0B6E080E0C6E770E0D6E0D2EFED700
:1004D2000C2EFCD70B2EFAD77CD03850000A1CE029
:1004E20038C044F023DE005217E038C031F0040E69
:1004F2001C6E020E3C6E0B0E3D6E38C03EF0B1DE3D
:10050200030E0B6E080E0C6E770E0D6E0D2EFED7BF
:100512000C2EFCD70B2EFAD75CD03850000A1DE007
:1005220038503D0A1AE089901C6A020E3C6E080E91
:100532003D6E150E3E6E000E3F6E2DDF040E0B6EED
:100542000C0E0C6E330E0D6E0D2EFED70C2EFCD73C
:100552000B2EFAD70000000029D03850000A26E0FE
:1005620038503D0A23E18990326A2E0E3C6E000E0D
:100572003D6E0FDE00C025F001C026F01C6A020E9F
:100582003C6E080E3D6E270E3E6E000E3F6E03DF80
:10059200040E0B6E0C0E0C6E330E0D6E0D2EFED76E
:1005A2000C2EFCD70B2EFAD70000000012D01C50E4
:1005B200000AD8B431D71C50010AD8B44ED71C5007
:1005C200020AD8B46AD71C50030A87E01C50040AF6
:0405D200A4E012008F
:1005D600939C939E939A939893969394819C819ED1
:1005E600819481968198819A1CDD1BDD1ADD8188B4
:1005F600818A818C1FDD819C14DD818C1BDD819CB1
:1006060010DD818C17DD819C0CDD819A818C12DDD9
:10061600819C07DD818C0EDD819C81988184818C93
:1006260009DD819CFEDC8194818A818C03DD819CBD
:10063600819A818CFFDC819CF4DC818CFBDC819CC3
:10064600818A818CF7DC819CECDC819A818CF2DCDE
:10065600819C818481868188818A818CEBDC819C66
:06066600E0DC3980120007
:10066C000900F5CFE6FF0006FBE10106F9E11200F7
:10067C00800E006E800E3B18005C02E13A500008C0
:10068C000FE2020E0C6E080E0D6E0D2EFED70C2E08
:10069C00FCD70000B8DE010E3A5E000E3B5AE8D7DC
:0206AC0012003A
:1006AE00120E006E000E016E830E0024E16E0F0E10
:0A06BE000120E26EFF0EE66E12004E
:1006C80096EC03F00F015B6B5C6B5D6B5E6B5F6BB5
:1006D8007EDF010E496EAFDC0C0E496EACDC010EFC
:1006E8003C6E060E3D6E1D0E3E6E000E3F6E50DED9
:1006F800DADF949092908B8089908B7025C03AF0C5
:0A07080026C03BF0B7DFF9D7FFD79A
:10072C0010EE15F0190E006E010E016E120EF66E23
:0E073C00070EF76E000EF86E36EC03F012009A
:070712002020202020200020
:0107190000DF
:08071A005445434C41444F00DB
:02072200640071
:07072400202020202020000E
:020000040030CA
:0E00000000015E3CFFD381FF0FC00FE00F40F8
:00000001FF
