:02000000862C4C
:10000800FF00030E8301CD000A08CE008A010B1DF4
:1000180060290130DF004A247008F2007108F300FB
:10002800F30CF20CF313F30CF20CF313FF3072051C
:10003800F0007308F1000030F105F4237008C900DE
:100048007108CA007208CB007308CC00DF014A248B
:100058007008F2007108F300F30CF20CF313F30CC0
:10006800F20CF313FF307205F0007308F100003052
:10007800F105F4237008C2007108C3007208C400B7
:100088007308C5004908F4004A08F5004B08F60053
:100098004C08F700EE237008DB007108DC007208DA
:1000A800DD007308DE005B08AE005C08AF005D0889
:1000B800B0005E08B1005B08F0005C08F1005D0864
:1000C800F2005E08F3003608F4003708F500380837
:1000D800F6003908F7005A229C30F400EA30F5009F
:1000E8002F30F6007C30F7003D233208F400330847
:1000F800F5003408F6003508F7005A227008D700D2
:100108007108D8007208D9007308DA005708AA00E5
:100118005808AB005908AC005A08AD003608F4007E
:100128003708F5003808F6003908F7005B08F000D2
:100138005C08F1005D08F2005E08F300EE23003071
:10014800F4004430F5005930F6007F30F7003D23C5
:100158003E08F4003F08F5004008F6004108F700A3
:10016800EE237008D3007108D4007208D500730814
:10017800D6005308BA005408BB005508BC005608FE
:10018800BD007130F0003D30F1000A30F2007F30E0
:10019800F3005B08F4005C08F5005D08F6005E08F3
:1001A800F7003D235708F4005808F5005908F600F1
:1001B8005A08F7005A225308F4005408F500550865
:1001C800F6005608F7005A227008A6007108A70022
:1001D8007208A8007308A9002208F4002308F50093
:1001E8002408F6002508F7005A227008A2007108B2
:1001F800A3007208A4007308A5007008F400710831
:10020800F5007208F6007308F7000030F0000030BF
:10021800F1007F30F2008630F3009E23013003188E
:100228000030F0007008031921290030A2000030C6
:10023800A3007F30A4008630A500F401F501F60183
:10024800F7012208F0002308F1002408F20025082D
:10025800F3009E23013003180030F00070080319E2
:100268003929A201A301A401A5012208F00023084D
:10027800F1002408F2002508F300FA227008C800EB
:100288007008DF0010242E08B6002F08B7003008C9
:10029800B8003108B9002A08B2002B08B3002C08AE
:1002A800B4002D08B5003A08BE003B08BF003C0862
:1002B800C0003D08C1000B114E088A004D0E830096
:0602C800FF0E7F0E09008D
:0E02CE00F201F101F001F801F3010030080027
:1002DC007B15FB1F78290130F300F201F101F001CD
:0802EC00FA0DF20CFF300800CE
:0802F400FA1FF21300300800AC
:1002FC00FB14FB1F8829FF30F300F200F100F00023
:08030C00FA0DF20CFF300800AD
:100314007C18C029FC1891297C19DF298A29A0019D
:100324007208031DB1297108F2007008F100780801
:10033400F000F801A0157208031DB1297108F2003C
:100344007008F100F001A01120167208031DB129F4
:100354007108F200F101A01572080319D3292008CD
:10036400F302031D031CD7290310F21BC029F80D47
:10037400F00DF10DF20DF30BB729D7297B1B701C7F
:10038400DB29F81FDB29F00A0319F10A0319F20A21
:10039400031DDB29F20CF10CF00CF30A0319DF291D
:1003A400DB290130FC006721E2290230FC006E21C8
:1003B400E2290430FC007A21E2290830FC007E2185
:0403C400000008002D
:1003C800A0017208031DF9297108F2007008F100F4
:1003D800F001A0157208031DF9297108F200F10156
:1003E800A011201672080319072A2008F302031D1A
:1003F800031C0B2A0310F21B0F2AF00DF10DF20D4E
:10040800F30BFF290B2A0130FC006721122A023066
:0E041800FC006E21122A0430FC007A2108003C
:0E0426008312031347088A004608820008006C
:10043400243083120313FD00FD0B1E2A0000080064
:100444007B14FB1F2D2AF201FA1FFF30F200F1008A
:0A045400F000FA0DF20CFF30080072
:10045E0083120313FB01FA01F9018030F800F10C4D
:10046E00F00C031C432A7408F90775080318750F5E
:10047E00FA070318FB0A0310F01F4B2A7408FA0739
:10048E0075080318750FFB07FB0CFA0CF90CF80C2A
:10049E00031C362A7B08F3007A08F2007908F10073
:0604AE007808F0000800D0
:1004B4008312031372087606A000F801F901730889
:1004C4007702031C7D2A7708FD007308F7007D0876
:1004D400F3007608FD007208F6007D08F200750846
:1004E400FD007108F5007D08F1007408FD00700836
:1004F400F4007D08F00077080319F62A7208FA0060
:10050400F217F61777087302F7000319B02A0830B8
:100514007702031CA62AF7007408F9007508F40092
:100524007608F500F60108307702031CA62AF700C6
:100534007408F9007508F400F50108307702031C0B
:10054400A62A7A08F200F62A77080319B02A0310BB
:10055400F60CF50CF40CF90CF70BA92AA01FBD2A14
:10056400F909F409F509F609F90A0319F40A031952
:10057400F50A0319F60A7908F80774080318740FC2
:10058400F00775080318750FF10776080318760F3E
:10059400F207A01BD62A031CE62AF20CF10CF00C7D
:1005A400F80CF30FE62AF22A0318EA2AF809F009EC
:1005B400F109F209F80A0319F00A0319F10A0319F7
:1005C400F20A8030FA06EE2A0130FC008A21F82A69
:1005D4000230FC008A21F82A0430FC00E421F82AC5
:1005E4000830FC007E21F82A0030FC0000000800DE
:1005F40083120313FB01FC01FA0173080319272B6F
:10060400FA13F2178630F302F31B0B2B03190B2B8F
:10061400292BF309F30A08307302031C182BF30087
:10062400F20DF2017308031D03101F2B7308031945
:100634001F2B0310F20CF30B1B2B7B1B721C272BA1
:10064400031C272BF20A03192E2BF101312B7B14E7
:10065400FB1F342BF101342B0130FC00362B00300E
:10066400FC00362BFF30FC00FC0803193A2B222235
:060674007208F00008000E
:10067A0083120313FB017308031D77080319942BD4
:10068A0072087606FA007708F3077E30031C512BAE
:10069A00F3020318972B542BF302031C9A2B7208AC
:1006AA00F8007108FC007008FD00F817F61703102F
:1006BA00F201F101F0011830A0007D1C6E2B7408C4
:1006CA00F00775080318750FF10776080318760FF7
:1006DA00F207F20CF10CF00CF80CFC0CFD0C0310F8
:1006EA00A00B622BF21B7E2BF80DF00DF10DF20D13
:1006FA00F3037B1B701C902BF81F902BF00A031935
:10070A00F10A0319F20A031D902BF20CF10CF00CFA
:10071A00F30A0319972BFA1FF21300309C2B0130AE
:10072A0067219C2B02307E219C2B04306E21000015
:02073A000800B5
:10073C0083120313FA017308031D7A147708031D3F
:10074C00FA147A080319EA2B033A0319B52B7A1811
:10075C00B22BF61FE82BE62BF21FE62BE82B7208C8
:10076C008039FA00F21376088039F6137A060319E9
:10077C00C32B7A080319E62BE82B770873020319AD
:10078C00CA2B031CDE2BE22B760872020319D12B29
:10079C00031CDE2BE22B750871020319D82B031CEA
:1007AC00DE2BE22B740870020319EA2B0318E22BE0
:1007BC00FA080319E82BE62BFA080319E62BE82BA9
:1007CC0003140800031008000314031508000800A4
:0C07DC00831203138030F6065A22080036
:1007E800831203137008F8007108F000F101F20198
:1007F800F301FB01FC019630F300FA017008F100E7
:0C0808007808F000F801F201E42108007B
:0C081400831203139501171297120800BD
:10082000831603131208013EF000F1010318F10AC8
:1008300083125F08F400F5012F220630F2007008E1
:10084000F4007108F500720803192B2CF50CF40C58
:10085000F513FF3E242C0430F1007408F0007108F9
:100860000319362CF00D7010FF3E302C303070051F
:10087000F3007408F0007508F100F10CF00CF113AE
:10088000F10CF00CF113700895000F309705730808
:0408900097040800C1
:10089400831203139F01C0309F042109F0007008E4
:1008A40083169F051F179F1783125F08F000F00D32
:1008B4007010F00D7010F00D701070089F041F146C
:1008C4001A221F151F1D682C0000642C1F101E08FF
:1008D400F100F00183161E08F0040030F104080052
:1008E400831603130711831212150C3097040800A2
:1008F40013228A110A128000840AC60A0319C70A3D
:08090400F003031D7A2C08002A
:10090C00C22483120313121492107C3083169200AB
:10091C000A247224063083168100A0308B00952C9B
:02092C00962C07
:1009840021308400253083120313F0009C30C6000C
:080994000430C7007A240800BA
:020938000F347A
:08093A000034003400340034E5
:080942000034003400340034DD
:08094A000034003400340034D5
:080952000034003400340034CD
:08095A000034003400340034C5
:080962000034003400340034BD
:08096A000034003400340034B5
:080972000034003400340034AD
:08097A00003400347E348534A2
:02400E000A2F77
:00000001FF
