:02000000802856
:1000060020002C082400910014180A28072811083B
:04001600F0000800EE
:10001A00FF302000A200FF30A300FF30A400FF3011
:10002A00A5000330A6000030A7002C30A80000303D
:10003A00A90021000C1020002C08043A031D2828CE
:10004A0021008C142A2821008C100C1524009501FB
:10005A001413941320002C082400950420002E0861
:10006A002400950420002D082400940420002E0862
:10007A00031946282F08003A031D4528240014179F
:10008A004C2820002F0803194C2824001417240098
:04009A0095160800AF
:10009E0021000C108C100C128C1222000C168C16D7
:1000AE002000AC01AD01AE010130AF000D20080003
:1000BE0012001E00F003031D5F28F103031D5F28CD
:0200CE00080028
:1000D00020002B08F0000030AB1BFF30F1000F3088
:1000E0007005AC003030AC0422008C1203202000DC
:1000F0002A08AC00032022008C160C120C160800F3
:100100002000A001A101F330210099004F20200020
:100110002008F0002108F100F035F10DAF30700734
:1001200084008030713D85000008AA00013100087C
:10013000AB0068202000A00A0319A10A2108013A97
:10014000031DA42868302006031DA828A001A101D2
:0E0150000230FD00FD0BAA2800008728AE2813
:10015E00003400343934003472340034AB3400349B
:10016E00E53400341E340134563401348F340134F6
:10017E00C834013400340234393402347134023458
:10018E00A9340234E13402341934033450340334C4
:10019E0087340334BE340334F43403342B34043440
:1001AE006034043496340434CB34043400340534CF
:1001BE0034340534683405349C340534CF34053476
:1001CE000234063434340634663406349734063436
:1001DE00C8340634F8340634283407345734073418
:1001EE0086340734B4340734E13407340E3408341B
:1001FE003A3408346534083490340834BA34083448
:10020E00E43408340C340934353409345C3409349C
:10021E0083340934A8340934CE340934F234093421
:10022E0016340A3438340A345A340A347C340A34D4
:10023E009C340A34BB340A34DA340A34F8340A34BF
:10024E0015340B3431340B344D340B3467340B34DA
:10025E0080340B3499340B34B1340B34C8340B3432
:10026E00DD340B34F2340B3406340C341A340C34C3
:10027E002C340C343D340C344D340C345C340C348E
:10028E006B340C3478340C3484340C3490340C3499
:10029E009A340C34A4340C34AC340C34B4340C34E2
:1002AE00BA340C34C0340C34C4340C34C8340C346A
:1002BE00CA340C34CC340C34CC340C34CC340C3432
:1002CE00CA340C34C8340C34C4340C34C0340C343A
:1002DE00BA340C34B4340C34AC340C34A4340C3482
:1002EE009A340C3490340C3484340C3478340C340A
:1002FE006B340C345C340C344D340C343D340C34CF
:10030E002C340C341A340C3406340C34F2340B34D2
:10031E00DD340B34C8340B34B1340B3499340B3414
:10032E0080340B3467340B344D340B3431340B348E
:10033E0015340B34F8340A34DA340A34BB340A3444
:10034E009C340A347C340A345A340A3438340A342D
:10035E0016340A34F2340934CE340934A83409344C
:10036E00833409345C340934353409340C3409349B
:10037E00E4340834BA34083490340834653408341C
:10038E003A3408340E340834E1340734B4340734C4
:10039E00863407345734073428340734F834063497
:1003AE00C83406349734063466340634343406348E
:1003BE0002340634CF3405349C34053468340534A5
:1003CE003434053400340534CB34043496340434D8
:1003DE00603404342B340434F4340334BE34033424
:1003EE00873403345034033419340334E134023483
:1003FE00A9340234713402343934023400340234F4
:10040E00C83401348F340134563401341E3401346F
:10041E00E5340034AB3400347234003439340034F3
:10042E00003400343934003472340034AB340034C8
:10043E00E53400341E340134563401348F34013423
:10044E00C834013400340234393402347134023485
:10045E00A9340234E13402341934033450340334F1
:10046E0087340334BE340334F43403342B3404346D
:10047E006034043496340434CB34043400340534FC
:10048E0034340534683405349C340534CF340534A3
:10049E000234063434340634663406349734063463
:1004AE00C8340634F8340634283407345734073445
:1004BE0086340734B4340734E13407340E34083448
:1004CE003A3408346534083490340834BA34083475
:1004DE00E43408340C340934353409345C340934CA
:1004EE0083340934A8340934CE340934F23409344F
:1004FE0016340A3438340A345A340A347C340A3402
:10050E009C340A34BB340A34DA340A34F8340A34EC
:10051E0015340B3431340B344D340B3467340B3407
:10052E0080340B3499340B34B1340B34C8340B345F
:10053E00DD340B34F2340B3406340C341A340C34F0
:10054E002C340C343D340C344D340C345C340C34BB
:10055E006B340C3478340C3484340C3490340C34C6
:10056E009A340C34A4340C34AC340C34B4340C340F
:10057E00BA340C34C0340C34C4340C34C8340C3497
:10058E00CA340C34CC340C34CC340C34CC340C345F
:10059E00CA340C34C8340C34C4340C34C0340C3467
:1005AE00BA340C34B4340C34AC340C34A4340C34AF
:1005BE009A340C3490340C3484340C3478340C3437
:1005CE006B340C345C340C344D340C343D340C34FC
:1005DE002C340C341A340C3406340C34F2340B3400
:1005EE00DD340B34C8340B34B1340B3499340B3442
:1005FE0080340B3467340B344D340B3431340B34BC
:10060E0015340B34F8340A34DA340A34BB340A3471
:10061E009C340A347C340A345A340A3438340A345A
:10062E0016340A34F2340934CE340934A834093479
:10063E00833409345C340934353409340C340934C8
:10064E00E4340834BA340834903408346534083449
:10065E003A3408340E340834E1340734B4340734F1
:10066E00863407345734073428340734F8340634C4
:10067E00C8340634973406346634063434340634BB
:10068E0002340634CF3405349C34053468340534D2
:10069E003434053400340534CB3404349634043405
:1006AE00603404342B340434F4340334BE34033451
:1006BE00873403345034033419340334E1340234B0
:1006CE00A934023471340234393402340034023421
:1006DE00C83401348F340134563401341E3401349D
:1006EE00E5340034AB340034723400343934003421
:0406FE000034003490
:020000040001F9
:04000E00A41F131602
:00000001FF
