:02000000612974
:100006002000FB01FA01F9018030F800F10CF00C38
:10001600031C16287408F90775080318750FFA07E4
:100026000318FB0A0310F01F1E287408FA07750848
:100036000318750FFB07FB0CFA0CF90CF80C031CE4
:1000460009287B08F3007A08F2007908F10078089D
:04005600F0000800AE
:08005A0022000E110E16080031
:0800620022000E148E100800AC
:10006A0020001B08013EF000F1010030F13D280894
:10007A00F400F50103200630F2007008F40071085C
:10008A00F500720803194D28F536F40CFF3E47288F
:10009A000430F1007408F000710803195728F0358C
:1000AA00FF3E522830307005F3007408F0007508DE
:1000BA00F100F136F00CF136F00C700825009100D1
:0A00CA000F3093057308930408003B
:1000D40020001B08013EF000F1010030F13D28082A
:1000E400F400F50103200630F2007008F4007108F2
:1000F400F500720803198228F536F40CFF3E7C28BB
:100104000430F1007408F000710803198C28F035EC
:10011400FF3E872830307005F3007408F00075083E
:10012400F100F136F00CF136F00C7008250098005F
:0A0134000F309A0573089A040800C2
:10013E0021008E1220001C150C302500930408009F
:10014E0020000C1DB3280C1EB3288C1EB3285A3069
:10015E00A0000030A100FB280C1DBE280C1EBE28DE
:10016E008C1ABE28A630A000FF30A100FB280C1D63
:10017E00C9280C1AC9288C1EC928A630A000FF3029
:10018E00A100FB280C1DD4280C1AD4288C1AD428B4
:10019E00A630A000FF30A100FB280C19DF280C1E92
:1001AE00DF288C1EDF285A30A0000030A100FB286B
:1001BE000C19E8280C1EE8288C1AE828A001A101C9
:1001CE00FB280C19F3280C1AF3288C1EF3285A302E
:1001DE00A0000030A100FB280C19FB280C1AFB28EC
:0A01EE008C1AFB28A001A1010800F3
:1001F80021008E1120001C150C3025009A040800DF
:100208005A3020002207F1000030233DF200710827
:10021800A4007208A50022085A3CA6002308031C63
:10022800013EA701A70280307206F00080307002FC
:10023800031D2029FF307102031C2529FF30A4006B
:10024800A5018030F000803025067002031D2E299C
:100258002408003C031C3229A401A501803027068C
:10026800F00080307002031D3B29FF302602031C7A
:100278004029FF30A600A7018030F0008030270613
:100288007002031D49292608003C031C4D29A601BC
:10029800A7012408A800352020002608A8006A2005
:0602A80031202D200800AA
:0A02AE00250098011A129A120800A8
:0A02B80025009101131293120800B3
:1002C20021009901980199101910191799161916F8
:1002D200991123008C018E0121000C150C168C162D
:1002E2000E108E100E110E128E118E129913200006
:1002F2001C149C147C309B005C2120001C149C1458
:100302007C309B0057217F302000A80035207F30B1
:100312002000A8006A209F20FC20A7202008A2001D
:0A0322002108A30004218E2995296B
:020000040001F9
:04000E00C42F1316D2
:00000001FF
