:020000003A299B
:100006002000FB01FA01F9018030F800F10CF00C38
:10001600031C16287408F90775080318750FFA07E4
:100026000318FB0A0310F01F1E287408FA07750848
:100036000318750FFB07FB0CFA0CF90CF80C031CE4
:1000460009287B08F3007A08F2007908F10078089D
:04005600F0000800AE
:08005A0022000E150E12080031
:0800620022000E108E140800AC
:08006A0022000E110E16080021
:0800720022000E148E1008009C
:10007A0020001B08013EF000F1010030F13D250887
:10008A00F400F50103200630F2007008F40071084C
:10009A00F500720803195528F536F40CFF3E4F286F
:1000AA000430F1007408F000710803195F28F03574
:1000BA00FF3E5A2830307005F3007408F0007508C6
:1000CA00F100F136F00CF136F00C700825009800BA
:0A00DA000F309A0573089A0408001D
:1000E40020001B08013EF000F1010030F13D25081D
:1000F400F400F50103200630F2007008F4007108E2
:10010400F500720803198A28F536F40CFF3E84289A
:100114000430F1007408F000710803199428F035D4
:10012400FF3E8F2830307005F3007408F000750826
:10013400F100F136F00CF136F00C70082500910056
:0A0144000F309305730893040800C0
:10014E0020002408A500722020002408A5003D20D0
:06015E00392035200800E5
:1001640020002408A500722020002408A5003D20BA
:0601740039202D200800D7
:10017A0020002408A500722020002408A5003D20A4
:06018A00352031200800C1
:1001900020000C1DD3280C1ED3288C1ED3283230EF
:1001A000A400B2201F2920000C1DDE280C1EDE2812
:1001B0008C1ADE283230A400B2201F2920000C1D2A
:1001C000E9280C1AE9288C1EE9283230A400A7205F
:1001D0001F2920000C1DF4280C1AF4288C1AF4286E
:1001E0003230A400B2201F2920000C19FF280C1E59
:1001F000FF288C1EFF283230A400BD201F292000BC
:100200000C190A290C1E0A298C1A0A299630A400F6
:10021000A7201F2920000C1915290C1A15298C1E3E
:1002200015293230A400BD201F2920000C191F29D8
:100230000C1A1F298C1A1F299630A400A720080029
:1002400021008E1120001C150C3025009A04080096
:1002500021008E1220001C150C302500930408008C
:0A026000250098011A129A120800F6
:0A026A002500910113129312080001
:100274002100990198019910191019179916191646
:10028400991123008C018E0121000C150C168C167B
:100294000E108E100E110E128E118E129913200054
:1002A4001C149C147C309B00352120001C149C14CD
:1002B4007C309B0030217F302000A50072207F30ED
:1002C4002000A5003D2028212021C8200330FC0067
:1002D4009730FD00FD0B6C29FC0B6C29000000001D
:0402E40067297329EA
:020000040001F9
:04000E00C42F1316D2
:00000001FF
