:02000000592A7B
:0C0006000230FD00FD0B05280000080082
:100012003A30FC002330FD00FD0B0D28FC0B0D28AF
:020022000800D4
:0A0024008530FD00FD0B14280800D4
:10002E002000DD1B1C280C131D280C175D1B21281E
:10003E000C1222280C16DD1A26288C1127288C1556
:10004E005D1A2B280C112C280C15201830280C1496
:10005E0031280C108C1403208C10DD1938280C1349
:10006E0039280C175D193D280C123E280C16DD1888
:10007E0042288C1143288C155D1847280C114828EE
:10008E000C1520184C280C144D280C108C14032021
:0E009E008C10201C5428092055281220080020
:1000AC002000F801F9011030FC00710DF80DF90D6C
:1000BC007408F8027508031C750FF90203186D28F3
:1000CC007408F80775080318750FF9070310F00D7D
:0800DC00F10DFC0B5B2808008C
:1000E4002000D601D801D9011030DA0004305902B9
:1000F4000318A528F0308D008030F0000030F100A6
:100104000D30700786000030713D87005A09F000F9
:1001140070088100032003200F300D05F0007008E3
:10012400D70070080319A0285808D60057080319E7
:100134009E28D736D60A98280430D900DA350430F8
:0C014400D807D90A78285608F0000800F7
:100150002000DA0105305A020318B8285A08580757
:1001600086000030593D870020308100DA0AAA2835
:100170005A08580786000030593D87008101DA038C
:100180005A085807DB000030593DDC000A30F40003
:10019000F5015608F0005708F10056207808F000E5
:1001A0007908F1003030F0075B0886005C088700B2
:1001B000700881000A30F400F5015608F000570875
:1001C000F10056207008D6007108D7000030710683
:1001D000031DEC2800307006031DEF28F128DA0318
:0401E000C02808002B
:0C01E4001A30FD00FD0BF428000008009C
:0E01F000200020105608DD0017202014080003
:1001FE0072207008CC000F300D05F000031909298C
:0A020E00F22002294C08F00008005D
:100218001D2980302000CC002F29C030CC002F2988
:100228009430CC002F29D430CC002F298030CC003A
:100238002F2920004C08013A03190D294C08023ACD
:10024800031911294C08033A031914294C08043AD4
:10025800031917291A294D03F0004C08F0077008F4
:10026800CC0020147008DD00172020104E08DD0097
:060278001720201408000D
:10027E002000D201D3014C08D4004D08D5008030A7
:10028E004D06F00080307002031D4F2900304C02E5
:10029E0003185D290130D2000030D3004C08003C19
:1002AE00D4004D08031C013ED501D5025408D600DA
:1002BE005508D7004E08D8004F08D900A8200630A0
:1002CE00D0000030D1005108003C031D70295008A9
:1002DE00003C03188B2950084E07860051084F3DED
:1002EE00870001305002F0000030513BF1007008E1
:1002FE004E07840071084F3D8500000881000130D3
:10030E00D0020030D13B6A294E0886004F08870084
:10031E0020308100520853040319B129D001D101B4
:10032E0050084E07840051084F3D85000008203AC2
:10033E00031DA529D00A0319D10A97290130D0022D
:10034E000030D13B50084E07860051084F3D8700C4
:06035E002D3081000800B3
:100364008030F0000030F1000D307007860000305E
:0A037400713D8700FF308100080092
:10037E0012001E00F003031DBF29F103031DBF2948
:02038E00080065
:1003900021008C100C100C118C110C120C1320006D
:1003A0008C100C100C130C128C110C11092009204C
:1003B00009208C150C158C1403208C1009208C142A
:1003C00003208C1009208C1403208C1009200C11A0
:1003D0008C1403208C1009208C1403208C108C1199
:1003E0000C178C1403208C1009200C130C158C1482
:1003F00003208C100C118C1403208C1009208C14F9
:1004000003208C100C158C1403208C1009200C1167
:100410008C1403208C100C170C168C150C158C14D6
:0A04200003208C10092020140800AE
:10042A00262A80302000CC00382AC030CC00382A56
:10043A009430CC00382AD430CC00382A8030CC0012
:10044A00382A20004C08013A0319162A4C08023AA5
:10045A0003191A2A4C08033A03191D2A4C08043AAC
:10046A000319202A232A4D03F0004C08F0077008CC
:10047A00CC007008DD0017202010D00150084E076C
:10048A00840000304F3D850000080319572A5008A0
:10049A004E07840000304F3D85000008D600F82042
:0804AA00D00A432A20140800C7
:1004B20064302000C9000030CA0023008C018D0185
:1004C20021008C01FF308D008C13C8210130DD002A
:1004D20017200C30DD0017200130CC000130CD0098
:1004E2005030A9006530AA007230AB006930AC0010
:1004F2006F30AD006430AE006F30AF003A30B00004
:100502002030B100B2012930CE000030CF001522D8
:100512000230CC000130CD003130B3003030B400B5
:100522003030B5002030B6006D30B7007330B800FF
:10053200B9013330CE000030CF001522B221FF20A6
:100542007008CB007008003A03191F2B0130DD0040
:1005520017200130CC000130CD005430BA00653094
:10056200BB006330BC006C30BD006130BE00203087
:10057200BF007030C0007530C1006C30C2007330F3
:10058200C3006130C4006430C5006130C6003A3037
:10059200C700C8013A30CE000030CF001522023029
:1005A200CC000530CD004B08CE000C21FA2A803059
:1005B2004A06F00080301F3A7002031DE22A4030E2
:1005C20049020318E82A6430C9070030CA3D032BE8
:1005D2008030F00080304A067002031DF22A49087A
:1005E200643C0318F82A6430C9020030CA3B032B6A
:1005F200032B4B08413A0319D82A4B08423A0319F4
:10060200E92AF92A4908CC004A08CD002130CE0057
:100612000030CF003F210230CC000830CD00213025
:10062200CE000030CF0015223430FC00F130FD0046
:10063200FD0B192BFC0B192B0000000080308C06DF
:100642003430FC00F130FD00FD0B252BFC0B252B7B
:0806520000000000A02A2C2B7F
:10065A0050346534723469346F3464346F343A34E4
:04066A002034003404
:0E066E0031343034303420346D347334003481
:10067C005434653463346C346134203470347534E0
:0E068C006C3473346134643461343A340034B5
:04069A006434003490
:020000040001F9
:04000E00A43F1317E1
:00000001FF
