:020000005A2B79
:0A0006008530FD00FD0B0528080001
:100010003A30FC002330FD00FD0B0C28FC0B0C28B3
:020020000800D6
:0C0022000230FD00FD0B13280000080058
:10002E002000D31B1C280C131D280C17531B212832
:10003E000C1222280C16D31A26288C1127288C1560
:10004E00531A2B280C112C280C15231830280C149D
:10005E0031280C108C1411208C10D31938280C1345
:10006E0039280C1753193D280C123E280C16D3189C
:10007E0042288C1143288C15531847280C114828F8
:10008E000C1523184C280C144D280C108C14112010
:0E009E008C10231C542808205528032008002D
:0E00AC00200023104E08D30017202314080054
:1000BA002000CE01D001D1011030D200043051020B
:1000CA0003189028F0308D008030F0000030F100E5
:1000DA000D30700786000030713D87005209F0002C
:1000EA0070088100112011200F300D05F0007008F2
:1000FA00CF00700803198B285008CE004F08031947
:10010A008928CF36CE0A83280430D100D23504306C
:0C011A00D007D10A63284E08F00008004E
:0C0126001A30FD00FD0B952800000800B9
:100132005D207008C9000F300D05F0000319A328D7
:0A01420093209C284908F0000800F3
:10014C00B72880302000C900C928C030C900C92890
:10015C009430C900C928D430C900C9288030C900DE
:10016C00C92820004908013A0319A7284908023A6E
:10017C000319AB284908033A0319AE284908043A75
:10018C000319B128B4284A03F0004908F007700895
:10019C00C9007008D30017202310CD014D084B0760
:1001AC00840000304C3D850000080319E8284D08F8
:1001BC004B07840000304C3D85000008CE005620D3
:0801CC00CD0AD4282314080019
:1001D40099207008A0007008003A0319D62A822AD0
:1001E4006430C7000030C8000230C9000830CA00BB
:1001F40031302100A0003030A1003030A200203086
:10020400A300A401A0302000CB000030CC00A62025
:10021400C22AF430C7000130C8000230C9000830D7
:10022400CA0035302100A5003030A6003030A700C8
:100234002030A800A901A5302000CB000030CC005C
:10024400A620C22AE830C7000330C8000230C90023
:100254000830CA0031302100AA003030AB00303001
:10026400AC003030AD00AE01AA302000CB0000302D
:10027400CC00A620C22ADC30C7000530C8000230FA
:10028400C9000830CA0031302100AF003530B00059
:100294003030B1003030B200B301AF302000CB00B9
:1002A4000030CC00A620C22AD030C7000730C800D6
:1002B4000230C9000830CA0032302100B4003030A6
:1002C400B5003030B6003030B700B801B43020008B
:1002D400CB000030CC00A620C22AC430C7000930AD
:1002E400C8000230C9000830CA0032302100B90009
:1002F4003530BA003030BB003030BC00BD01B930FD
:100304002000CB000030CC00A620C22AB830C700A1
:100314000B30C8000230C9000830CA003330210055
:10032400BE003030BF003030C0003030C100C201E8
:10033400BE302000CB000030CC00A620C22AAC3056
:10034400C7000D30C8000230C9000830CA0033307D
:100354002100C3003530C4003030C5003030C60041
:10036400C701C3302000CB000030CC00A620C22A35
:100374009430C7001130C8000230C9000830CA00E8
:1003840034302100C8003530C9003030CA00303064
:10039400CB00CC01C8302000CB000030CC00A6201C
:1003A400C22A8830C7001330C8000230C9000830A0
:1003B400CA0035302100CD003030CE003030CF00BF
:1003C4003030D000D101CD302000CB000030CC0043
:1003D400A620C22A7C30C7001530C8000230C900EC
:1003E4000830CA0035302100D2003530D300303017
:1003F400D4003030D500D601D2302000CB000030FC
:10040400CC00A620C22A7030C7001730C8000230C2
:10041400C9000830CA0036302100D7003030D80077
:100424003030D9003030DA00DB01D7302000CB0087
:100434000030CC00A620C22A6430C7001930C8009E
:100444000230C9000830CA0036302100DC003530E3
:10045400DD003030DE003030DF00E001DC30200031
:10046400CB000030CC00A620C22A5830C7001B3075
:10047400C8000230C9000830CA0037302100E1004A
:100484003030E2003030E3003030E400E501E130A8
:100494002000CB000030CC00A620C22A4C30C7007C
:1004A4001D30C8000230C9000830CA0037302100AE
:1004B400E6003530E7003030E8003030E900EA018A
:1004C400E6302000CB000030CC00A620C22A403009
:1004D400C7001F30C8000230C9000830CA003830D5
:1004E4002100EB003030EC003030ED003030EE0015
:1004F400EF01EB302000CB000030CC00A620C22A54
:100504002008013A0319F2282008023A03190B299A
:100514002008033A031924292008043A03193D2921
:100524002008053A031956292008063A03196F29A9
:100534002008073A031988292008083A0319A12931
:100544002008093A0319BA2920080A3A0319D329B9
:1005540020080B3A0319EC2920080C3A0319052A40
:1005640020080D3A03191E2A20080E3A0319372AC7
:1005740020080F3A0319502A2008103A0319692A4F
:100584000930FC004E30FD00FD0BC62AFC0BC62AC8
:1005940000004708F0004808F100F136F00C70083C
:0A05A400A1007108A200D62A080089
:1005AE0020004308C5004408C6008030F0008030AB
:1005BE0046067002031DE52A4508003C0318F62A7C
:1005CE000930FC004E30FD00FD0BEB2AFC0BEB2A34
:1005DE000000EA200130C5020030C63BDC2A0800CC
:1005EE008030F0000030F1000D30700786000030D2
:0A05FE00713D8700FF308100080006
:1006080021008C100C100C118C110C120C132000F2
:100618008C100C100C130C128C110C1108200820D3
:1006280008208C150C158C1411208C1008208C14A3
:1006380011208C1008208C1411208C1008200C110B
:100648008C1411208C1008208C1411208C108C1103
:100658000C178C1411208C1008200C130C158C14FA
:1006680011208C100C118C1411208C1008208C1463
:1006780011208C100C158C1411208C1008200C11D2
:100688008C1411208C100C170C168C150C158C144E
:0A06980011208C1008202314080024
:1006A20012001E00F003031D512BF103031D512BF9
:0206B20008003E
:1006B4002000A0016430A100A201F33021009900C0
:1006C40023008C018D0121008C01FF308D00042357
:1006D4000130D30017200C30D30017200130C9009B
:1006E4000130CA000E308400843085002430860036
:1006F400003087001230F0000130F1005123243023
:10070400CB000030CC00A6200230C9000130CA0062
:100714004E30B6006530B7007730B8002030B900ED
:100724005430BA003A30BB002030BC00BD01363032
:10073400CB000030CC00A6200230C9000D30CA0026
:100744005B30BE006D30BF007330C0005D30C1004F
:10075400C2013E30CB000030CC00A620F72221009D
:100764008C13803022008C0620002108C30022084C
:08077400C400D722B32BBD2BFA
:0A077C0031343034303420340034BE
:0A07860035343034303420340034B0
:0A079000313430343034303400349A
:0A079A00313435343034303400348B
:0A07A4003234303430343034003485
:0A07AE003234353430343034003476
:0A07B8003334303430343034003470
:0A07C2003334353430343034003461
:0A07CC003434353430343034003456
:0A07D6003534303430343034003450
:0A07E0003534353430343034003441
:0A07EA00363430343034303400343B
:0A07F400363435343034303400342C
:0A07FE003734303430343034003426
:0A0808003734353430343034003416
:0A0812003834303430343034003410
:10081C0054343A34203420343134303430342D34A0
:10082C00383430343034303420345B346D347334F9
:04083C005D340034F3
:100840004E3465347734203454343A342034003410
:0A0850005B346D3473345D34003402
:020000040001F9
:04000E00E43F1317A1
:00000001FF
