:02000000712865
:1000060023009E1808280000032820003508230036
:040016009A00080044
:10001A0003302000A4000030A5003530A6000030CF
:10002A00A7006730A8000030A9000030AA000030FD
:10003A00AB006130AC000030AD000030AE000030E3
:10004A00AF00FF30A000FF30A1000030A200003056
:10005A00A30023009E1690309D0021008D140D11DF
:10006A002000911E3C2823001908F00035280800BA
:10007A0012001E00F003031D3D28F103031D3D2855
:02008A0008006C
:10008C002000B40131088400320885000008B30058
:10009C003308003A031960283308B5000320200008
:1000AC00B40A3408310784000030323D8500000862
:0600BC00B3004E2808000D
:0C00C20000302000911A0130F00008000E
:1000CE0023001908F1009D1C6E281D121D167108C3
:0400DE00F000080026
:1000E20023008C0121008C0123008D01223021008C
:1000F2008D00F030990022009D131E1023009F15E1
:100102008A309B009C011E150D200530FB000F302C
:10011200FC00F130FD00FD0B8C28FC0B8C28FB0B46
:100122008C28EE30840080308500A03086000030BC
:1001320087001930F0000130F1003D20A03020008E
:10014200B1000030B20046200D30B50003200A3065
:100152002000B50003200730840081308500B930CB
:100162008600003087001430F0000130F1003D209D
:10017200B9302000B1000030B20046200D30B50089
:1001820003200A302000B500032061207008013AE4
:10019200031DEC28672070082000B0001B3084008B
:1001A20081308500CD308600003087001730F000A6
:1001B2000130F1003D20CD30B1000030B2004620C8
:1001C2003008B50003200D302000B50003200A30AE
:0A01D2002000B5000320C628ED2828
:1001DC004234693465346E34763465346E34693443
:1001EC0064346F34203461346C34203473346934A7
:1001FC006D3475346C34613464346F3472343A3425
:02020C000034BC
:10020E00503475346C3473346534203475346E3434
:10021E00613420347434653463346C346134213485
:08022E002E342E342E3400346E
:10023600553473347434653464342034703475340E
:100246006C3473346F3420346C3461342034743439
:0E025600653463346C3461343A34203400343F
:020000040001F9
:04000E00E23F1316A4
:00000001FF
