:0400000088316B29AF
:1000080070082000AE007108AD007208AC007308DB
:10001800AB007408AA007508A9007608A80077083C
:10002800A7007808A6007908A5007A08A4007B082C
:10003800A3007C08A2007D08A10080318B1C5828F1
:1000480018101708F100F0011608F0040030F10448
:10005800E3277008C1007108C2007208C300730862
:10006800C4004508F4004608F5004708F6004808AB
:10007800F7008831C42080317008C1007108C200BF
:100088007208C3007308C400D901DA01C501C601AA
:10009800C701C8010130DB000030DC009701960180
:1000A8001814210011148B1020002E08F0002D08C0
:1000B800F1002C08F2002B08F3002A08F4002908A4
:1000C800F5002808F6002708F7002608F800250894
:1000D800F9002408FA002308FB002208FC00210884
:0400E800FD0009000E
:1000EC00210063082400910014187D287A28110837
:0400FC00F000080008
:1001000021006308240099001C18872884281908F6
:04011000F0000800F3
:1001140023009E188F2800008A28210063082300EA
:040124009A00080035
:1001280024001419A1281F301605F1007108003A9F
:0E013800031DA1280130F000A228F0010800EC
:0A01460071088A00700882000800AA
:10015000200039082100DF0020003A082100E000DB
:1001600020003B082100E10020003C082100E200C3
:10017000DD01DE015E08123C031DC0285D088E3CD7
:10018000031CCC28942070080319C728CC28210010
:10019000DD0A0319DE0ABA28210012305E02031DAF
:1001A000D3288F305D02031CD8287B30F00004294F
:1001B000240016142400161C0329200039083A04D0
:1001C0003B043C040319022921005F086004610418
:1001D0006204031DFB2820005F088600600887007A
:1001E0000530810041315D08F0005E08F100A32078
:1001F0000130F000042901302100DF020030E03B33
:0A020000E13BE23BDA28F0010800C0
:06020A0024001615080097
:100210002000911121005D08240091002000390880
:100220002100DE0020003A082100DF0020003B080A
:100230002100E00020003C082100E1002400141D02
:100240004729200039083A043B043C040319462995
:1002500021005E085F0460046104031D3F29200043
:100260005F088600600887000430810041315D0826
:10027000F0005E08F100A3200130F0008729013072
:100280002100DE020030DF3BE03BE13B1E29200085
:1002900039082100DE0020003A082100DF0020009C
:1002A0003B082100E00020003C082100E100200084
:1002B00091197F2939083A043B043C0403197E292B
:1002C00021005E085F0460046104031D772920009B
:1002D0005F088600600887000430810041315D08B6
:1002E000F0005E08F100A3200130F0008729013002
:1002F0002100DE020030DF3BE03BE13B57292400D8
:10030000161B8429F001872916150230F000080019
:08031000FA1FF213003008008F
:0E031800F201F101F001F801F30100300800DC
:100326002100DC01F0305905DA005908DB00DB3525
:10033600DB35DB35DB35F030DB05A82094204E308D
:100346002100DD000821942021005C085A04DD000C
:100356005D15DD15082194200530FD00FD0BB12942
:1003660021005C085A04DD00DD15082194200530C3
:10037600FD00FD0BBC2921005C085B04DD005D155A
:10038600DD15082194200530FD00FD0BC82921004C
:100396005C085B04DD00DD150821942005212100A1
:1003A6005908013A031DE0291530FC00C630FD004E
:0C03B600FD0BDB29FC0BDB29000008001C
:1003C200FB14FB1FEB29FF30F300F200F100F000F9
:0803D200FA0DF20CFF300800E7
:1003DA007B15FB1FF7290130F300F201F101F0014F
:0803EA00FA0DF20CFF300800CF
:1003F2002000FA017308031D7A147708031DFA140A
:100402007A080319442A033A03190F2A7A180C2A84
:10041200F61F422A402AF21F402A422A72088039D5
:10042200FA00F21376088039F6137A0603191D2AA8
:100432007A080319402A422A770873020319242AE8
:10044200031C382A3C2A7608720203192B2A031C41
:10045200382A3C2A750871020319322A031C382AE9
:100462003C2A740870020319442A03183C2AFA0829
:100472000319422A402AFA080319402A422A03147D
:0E04820008000310080003140315080008000A
:100490002000FB017308031D770803199E2A7208C8
:1004A0007606FA007708F3077E30031C5B2AF30216
:1004B0000318A12A5E2AF302031CA42A7208F8007A
:1004C0007108FC007008FD00F817F6170310F20120
:1004D000F101F0011830A0007D1C782A7408F007A3
:1004E00075080318750FF10776080318760FF207E1
:1004F000F20CF10CF00CF80CFC0CFD0C0310A00B32
:100500006C2AF21B882AF80DF00DF10DF20DF303A1
:100510007B1B701C9A2AF81F9A2AF00A0319F10A09
:100520000319F20A031D9A2AF20CF10CF00CF30ADB
:100530000319A12AFA1FF2130030A62A01308C21D8
:10054000A62A0230E121A62A0430ED21000008008D
:06055000FB15FF3008005E
:1005560021005308F4005408F5007408F2007508E9
:10056600F300F40A0319F50A5508F0005608F100DD
:10057600D50A0319D60A7008840071088500720826
:1005860086007308870000088100720884007308DB
:10059600850000080319D02AB02A5308F000540831
:0405A600F100080058
:1005AA0001302100D800F52A5403F0007008803E7B
:1005BA00D9009321052B5403F0007008C03ED900DE
:1005CA009321052B5403F0007008943ED90093211F
:1005DA00052B5403F0007008D43ED9009321052B53
:1005EA005308013A0319D92A5308023A0319E02A8F
:1005FA005308033A0319E72A5308043A0319EE2A5F
:10060A00F0305505D6005508D700D735D735D73538
:10061A00D735F030D705A82094204E302100DD00D0
:10062A0008219420210058085604DD005D15DD15C7
:10063A00082194200530FD00FD0B212B21005808CC
:10064A005604DD00DD15082194200530FD00FD0B60
:10065A002C2B210058085704DD005D15DD150821F3
:10066A0094200530FD00FD0B382B21005808570453
:0C067A00DD00DD1508219420052108009A
:1006860001302100D600F0305305D4005308D500C0
:10069600D535D535D535D535F030D505A8209420B6
:1006A6004E302100DD000821942021005608540414
:1006B600DD005D15DD15082194200530FD00FD0BDC
:1006C600622B210056085404DD00DD150821942014
:1006D6000530FD00FD0B6D2B210056085504DD008D
:1006E6005D15DD15082194200530FD00FD0B792BE5
:1006F600210056085504DD00DD150821942005214A
:020706000800E9
:100708002000FD01F8017008031900347406FA008E
:10071800FA1BFD09FB01F41F932BF409F40AF01FDF
:10072800972BF009F00A70087404FA00FA1BBB2B27
:100738007408F802F00D700DF80D7408F807F00D44
:100748000630FC00700DF80D74087018F802701C63
:10075800F807F00DFC0BA62B701CF8077B18C92BAB
:10076800FD1F0034F009F00AF809F80A0034F41FF4
:10077800C62BF01BC32B7008F800F001B42BF00156
:10078800F00A0034F009FB0A9C2BF80A7408780276
:10079800031DB42BF801F00AF01FB42BFF34080036
:1007A8007C180A2CFC18DB2B7C19292CD42BA001D3
:1007B8007208031DFB2B7108F2007008F10078081D
:1007C800F000F801A0157208031DFB2B7108F20058
:1007D8007008F100F001A01120167208031DFB2B10
:1007E8007108F200F101A015720803191D2C2008E8
:1007F800F302031D031C212C0310F21B0A2CF80D15
:10080800F00DF10DF20DF30B012C212C7B1B701C4C
:10081800252CF81F252CF00A0319F10A0319F20AEE
:10082800031D252CF20CF10CF00CF30A0319292CEA
:10083800252C0130FC008C212C2C0230FC00ED21F1
:100848002C2C0430FC0088212C2C0830FC00E121E1
:040858000000080094
:10085C00A0017208031D432C7108F2007008F1000E
:10086C00F001A0157208031D432C7108F200F10170
:10087C00A011201672080319512C2008F302031D35
:10088C00031C552C0310F21B592CF00DF10DF20D1D
:10089C00F30B492C552C0130FC008C215C2C0230C4
:0E08AC00FC00ED215C2C0430FC0088210800CB
:1008BA00200073087706031D6F2C72087606031D45
:1008CA006F2C71087506031D6F2C700874060319C6
:0A08DA0003150800031108000800D0
:1008E4007408003A031D8B2C7508003A031D8B2CE9
:1008F4007608003A031D8B2C7708003A031D8B2CD5
:10090400FF30F000FF30F1007F30F200FF30F300E1
:10091400252D200077080319192D730803191C2DA0
:10092400720876068039FA00F217F617A0017208E9
:10093400F8007108FC007008FD007408FD027508D9
:10094400031C750FFC027608031C760FF802F801ED
:10095400FC01FD01031CB52C0310F20CF10CF00C8E
:10096400F80C0130A0007708F302031CBF2C7E3082
:100974002007F30703181F2DC42C7E302007F3072C
:10098400031C222D1830FA07FD0DFC0DF80DF00D97
:10099400F10DF20DA00D7408F0027508031C750F1B
:1009A400F1027608031C760FF202760DA004201CD7
:1009B400DD2C7D14E82C7408F00775080318750FF6
:1009C400F10776080318760AF2077D10FA031F3040
:1009D4007A05031DC62C7B1B7D1C0F2D0310F00D07
:1009E400F10DF20DA00D7408F0027508031C750FCB
:1009F400F1027608031C760FF202760D2004013909
:100A0400FD070318FC0A0319F80A031D0F2DF80C3F
:100A1400FC0CFD0CF30A03191F2DFA1FF8137808B8
:100A2400F2007C08F1007D08F0000030242D013034
:100A3400A822242D02308C21242D0430E121242DE0
:080A44000830ED21000008005C
:100A4C0021004A0884004B088500000803193F2D3B
:100A5C004808D3004908D4004A0884004B08850094
:100A6C000008D500D5222100C90ACA0A0319CB0AED
:040A7C00262D08001B
:100A80002000EF012100D2014808CE004908CF0024
:100A90004A08D0004B08D1005108FF3A031D5A2DD7
:100AA0005008FF3A031D5A2D4F08FF3A031D5A2DD7
:100AB0004E08FF3A031D682D4C08D3004D08D400A2
:100AC0002F30D5000030D600AB220330F000862F47
:100AD00001302000ED002100D01F7F2D8030500616
:100AE000F0007008D0002000ED0A21004C088600BC
:100AF0004D0887002D308100CC0A0319CD0A003043
:100B0000F0005106031D8E2D70085006031D8E2D1A
:100B100070084F06031D8E2D4E08003A031D9B2DB5
:100B20004C08D3004D08D4003730D5000030D60033
:100B3000AB22F001862F5108FF3A031DA92D500862
:100B4000003A031DA92D4F08003A031DA92D4E0898
:100B5000003A031DB82D4C08D3004D08D4003D3099
:100B6000D5000030D600AB2220006D08F000862FA3
:100B70000030F4000030F5000030F6007F30F70060
:100B800021004E08F0004F08F1005008F200510813
:100B9000F300F921013003180030F0007008031948
:100BA000EE2D21004E08F0004F08F1005008F20031
:100BB0005108F3000030F4000030F5002030F6005A
:100BC0008230F700482270082100CE007108CF0063
:100BD0007208D0007308D100D203B82D2100003074
:100BE000F4000030F5002030F6008230F7004E08A7
:100BF000F0004F08F1005008F2005108F300F9210D
:100C00000130031C0030F00070080319242E21006D
:100C10004E08F0004F08F1005008F2005108F300B0
:100C2000CD30F400CC30F5004C30F6007B30F700CE
:100C3000482270082100CE007108CF007208D00051
:100C40007308D100D20AEE2D2100FF304E05F800C6
:100C5000FF304F05F9007F305005FA000030510594
:100C6000FB007808F4007908F5007A08F6007B08A4
:100C7000F700F435F50DF60DF70D00304E05F000D8
:100C800000304F05F10000305005F200FF305105F3
:100C9000F3007008CE007108CF007208D00073080E
:100CA000D10074084E04F00075084F04F100760876
:100CB0005004F20077085104F3007008CE00710868
:100CC000CF007208D0007308D1007F305102F000CD
:100CD00070082000EE0001302100D1007008F400FF
:100CE0004E08F0004F08F1005008F2005108F300E0
:100CF00074080319812EF035F10DF20DF30DFF3E4E
:100D0000792E7008CE007108CF007208D0007308E9
:100D1000D1004C0886004D0887005108303E810004
:100D2000CC0A0319CD0A80305206F0008030013A17
:100D30007002031CA42E8030063AF0008030520668
:100D40007002031CA42EB02E4C0886004D088700AC
:100D50002E308100CC0A0319CD0A01302000EF00AB
:100D600020000630EE006E08003A0319112F210012
:100D7000D1014E08F0004F08F1005008F200510870
:100D8000F300F035F10DF20DF30DF035F10DF20D2C
:100D9000F30D4E08F0074F08F13D5008F23D5108A1
:100DA000F33D7008CE007108CF007208D0007308C0
:100DB000D1004E08F0004F08F1005008F200510831
:100DC000F300F035F10DF20DF30D7008CE0071084F
:100DD000CF007208D0007308D1004C0886004D087F
:100DE00087005108303E8100CC0A0319CD0A20004B
:100DF0006F08003A031D0E2F2100D2035208003A5B
:100E0000031D0E2F4C0886004D0887002E308100F0
:100E1000CC0A0319CD0A01302000EF002000EE03B8
:100E2000B32EFF3021004C078400FF304D3D85007C
:100E30000008303A031D212F0130CC020030CD3B99
:100E4000112FFF304C078400FF304D3D8500000816
:100E50002E3A031D2F2F0130CC020030CD3B52081B
:100E6000003A0319802F4C0886004D088700653032
:100E70008100CC0A0319CD0A80305206F000803080
:100E8000003A70020318502F4C0886004D08870066
:100E90002D308100CC0A0319CD0A5208003CD20043
:100EA00052082000EE008030093AF0008030210026
:100EB0005206700203186D2F0A30F40020006E08ED
:100EC000F000842321004C0886004D08870070083C
:100ED000303E8100CC0A0319CD0A0A30F40020000C
:100EE0006E08F00084237808F00021004C0886008A
:100EF0004D0887007008303E8100CC0A0319CD0AE6
:0E0F00004C0886004D0887008101F0010800B2
:100F0E0012001E00F003031D872FF103031D872F10
:020F1E000800C9
:100F200094302100C0000030C1000030C200003009
:100F3000C300A830C4000030C5000030C600003037
:100F4000C700FF30B400FF30B5000030B6000030FD
:100F5000B700FF302000E900FF30EA00FF30EB006F
:100F6000FF30EC0008302100BC000130BD00DD3056
:100F7000BE000030BF000530B8000130B9000030BD
:100F8000BA000030BB0024001413941321008D1408
:0A0F90000D1638302400950008000B
:100F9A0020006D0884006E08850000080319E22FFE
:100FAA006D0884006E08850000082100D3004323E1
:0C0FBA002000ED0A0319EE0ACD2F0800FC
:100FC60020007008F8007108F000F101F201F30149
:100FD600FB01FC019630F300FA017008F100780875
:0A0FE600F000F801F2012E240800CB
:101000002000ED018031A820883180319420883182
:101010004E302100DD00803108218831803194205C
:1010200088310230FB003830FC00AD30FD00FD0B94
:101030001728FC0B1728FB0B1728303020006D04F5
:101040002100DD005D15DD158031082188318031FA
:10105000942088318530FD00FD0B2C283030200095
:101060006D042100DD00DD158031082188318031DB
:10107000942088316830FC00E430FD00FD0B3E28F0
:10108000FC0B3E280000303020006D042100DD0004
:101090005D15DD158031082188318031942088313B
:1010A0008530FD00FD0B5228303020006D042100FA
:1010B000DD00DD15803108218831803194208831B0
:1010C0006830FC00E430FD00FD0B6428FC0B642854
:1010D0000000303020006D042100DD005D15DD15BD
:1010E0008031082188318031942088318530FD009D
:1010F000FD0B7828303020006D042100DD00DD1567
:101100008031082188318031942088316830FC009A
:10111000E430FD00FD0B8A28FC0B8A2800002030FB
:1011200020006D042100DD005D15DD1580310821F2
:1011300088318031942088318530FD00FD0B9E2858
:10114000203020006D042100DD00DD1580310821F4
:101150008831803194208831803105218831683090
:10116000FC00E430FD00FD0BB328FC0BB3280000AD
:1011700028302100D9008031932188310630D900F0
:08118000803193218831080041
:10118800200072087606A000F801F90173087702BA
:10119800031CE6287708FD007308F7007D08F300B4
:1011A8007608FD007208F6007D08F2007508FD005B
:1011B8007108F5007D08F1007408FD007008F4005E
:1011C8007D08F0007708031967297208FA00F217FA
:1011D800F61777087302F700031919290830770200
:1011E800031C0F29F7007408F9007508F400760845
:1011F800F500F60108307702031C0F29F700740880
:10120800F9007508F400F50108307702031C0F296E
:101218007A08F20067297708031919290310F60CD0
:10122800F50CF40CF90CF70B1229A01F2629F90963
:10123800F409F509F609F90A0319F40A0319F50A74
:101248000319F60A7908F80774080318740FF007E9
:1012580075080318750FF10776080318760FF2075B
:10126800A01B3F29031C4F29F20CF10CF00CF80CC1
:10127800F30F4F29612903185529F809F009F109D5
:10128800F209F80A0319F00A0319F10A0319F20A14
:101298008030FA065B290130FC008031D423883184
:1012A80069290230FC008031D4238831692904304F
:1012B800FC0080312E24883169290830FC008031F7
:0E12C800E121883169290030FC000000080097
:1012D6009022F030210099008C0123008C0121001E
:1012E6008D0123008D0121000D1450302400920041
:1012F60080319027883100200C30D900803193212D
:1013060088310130D9008031932188310130C800FD
:101316000130C9004930CA000030CB008031262593
:101326008831043020009800960197019913210016
:10133600151790308B000130D90080319321883108
:10134600F401F501F601F70120004108F00042081A
:10135600F1004308F2004408F30080315D2488312F
:101366000130031D0030F00070080319BF29E501A4
:10137600E601E701E801FA2900305C06031DC529EC
:1013860000305B060319F6294108F0004208F10017
:101396004308F2004408F3000030F4000030F50082
:1013A6000030F6008130F70080314822883170081D
:1013B600F4007108F5007208F6007308F7000030B3
:1013C600F0002430F1007430F2009730F3008031E1
:1013D600722488317008E5007108E6007208E7009B
:1013E6007308E800FA29E501E601E701E801DB01F7
:1013F600DC010030E1002430E2007430E300973075
:10140600E40065082100C800200066082100C90024
:10141600200067082100CA00200068082100CB00D0
:10142600A030CC000030CD0080314025883101301D
:101436002100C8000530C900A030CA000030CB002A
:1014460080312625883133302000ED000030EE0053
:101456008031CD27883161082100C800200062084C
:101466002100C900200063082100CA00200064088A
:101476002100CB00A030CC000030CD0080314025CB
:10148600883102302100C8000530C900A030CA00EA
:101496000030CB008031262588311530FB004B30DB
:1014A600FC00BE30FD00FD0B562AFC0B562AFB0B3A
:0814B600562A00009E295E2A5F
:10152000623084008A3085002E30F0000130F100F6
:101530002F308600003087008031872788310800EF
:0814C4004E3461344E34003453
:0814CC00203448345A34003486
:0414D400303400347C
:0814D80000340034003400343C
:0814E00049344E344634003457
:0814E80000340034003400342C
:0814F000003400340034003424
:1014F80020342034203420344634523445344334A4
:101508002034203420342034203420343D34003436
:041518000034003467
:04151C000034003463
:020000040001F9
:04000E00043F131781
:00000001FF
