:040000008831192A00
:1000080070082000A8007108A7007208A6007308ED
:10001800A5007808A4007A08A3007B08A2007C0841
:10002800A1008031111D32280130D0000030D100EC
:10003800181025001208F100F0011108F004003032
:10004800F10491277008E3007108E4007208E500E4
:100058007308E6009701960118141111121C502814
:100068000130D0000030D100181025001908F10027
:10007800F0011808F0040030F104912770082100FD
:10008800D7007108D8007208D9007308DA00200078
:1000980097019601181412102808F0002708F1009B
:1000A8002608F2002508F3002408F8002308FA00BF
:0A00B8002208FB002108FC000900EB
:0800C200FA1FF21300300800E0
:1000CA007B15FB1F6F280130F300F201F101F001EB
:0800DA00FA0DF20CFF300800E2
:0E00E200F201F101F001F801F3010030080015
:1000F000FB14FB1F8228FF30F300F200F100F00038
:08010000FA0DF20CFF300800BB
:100108007C18BA28FC188B287C19D9288428A001C7
:100118007208031DAB287108F2007008F100780816
:10012800F000F801A0157208031DAB287108F20051
:100138007008F100F001A01120167208031DAB2809
:100148007108F200F101A01572080319CD282008E2
:10015800F302031D031CD1280310F21BBA28F80D63
:10016800F00DF10DF20DF30BB128D1287B1B701C9B
:10017800D528F81FD528F00A0319F10A0319F20A3D
:10018800031DD528F20CF10CF00CF30A0319D92839
:10019800D5280130FC007120DC280230FC006520E5
:1001A800DC280430FC006120DC280830FC007820C2
:0401B800000008003B
:0C01BC000230FD00FD0BE02800000800F0
:1001C8003A30FC002330FD00FD0BE828FC0BE82842
:0201D80008001D
:0A01DA008530FD00FD0BEF28080042
:1001E400A0017208031D07297108F2007008F100CC
:1001F400F001A0157208031D07297108F200F1012E
:10020400A01120167208031915292008F302031DF2
:10021400031C19290310F21B1D29F00DF10DF20D19
:10022400F30B0D2919290130FC007120202902301B
:0E023400FC00652020290430FC006120080039
:100242002100EF1B272920008D13292920008D175B
:1002520021006F1B2F2920000D11312920000D15BF
:100262002100EF1A372920008D10392920008D1422
:1002720021006F1A3F2920000C10412920000C1484
:100282006B1845290D1646290D128D16DE208D128A
:100292002100EF194F2920008D13512920008D17BD
:1002A20021006F19572920000D11592920000D1521
:1002B2002100EF185F2920008D10612920008D1484
:1002C20021006F18672920000C10692920000C14E6
:1002D2006B186D290D166E290D128D16DE208D12EA
:0C02E2006B1C7529E4207629ED20080033
:1002EE00200072087606A000F801F9017308770263
:1002FE00031C99297708FD007308F7007D08F300A9
:10030E007608FD007208F6007D08F2007508FD0003
:10031E007108F5007D08F1007408FD007008F40006
:10032E007D08F00077080319122A7208FA00F217F6
:10033E00F61777087302F7000319CC2908307702F5
:10034E00031CC229F7007408F9007508F40076083A
:10035E00F500F60108307702031CC229F700740875
:10036E00F9007508F400F50108307702031CC22964
:10037E007A08F200122A77080319CC290310F60C1A
:10038E00F50CF40CF90CF70BC529A01FD929F909A6
:10039E00F409F509F609F90A0319F40A0319F50A1D
:1003AE000319F60A7908F80774080318740FF00792
:1003BE0075080318750FF10776080318760FF20704
:1003CE00A01BF229031C022AF20CF10CF00CF80C03
:1003DE00F30F022A0E2A0318062AF809F009F1096A
:1003EE00F209F80A0319F00A0319F10A0319F20ABD
:1003FE008030FA060A2A0130FC008420142A0230CA
:10040E00FC008420142A0430FC00F220142A083048
:0E041E00FC007820142A0030FC0000000800CA
:10042C007B14FB1F212AF201FA1FFF30F200F100AE
:0A043C00F000FA0DF20CFF3008008A
:06044600FB15FF30080069
:0A044C0020008030F606772108003A
:100456002000FA017308031D7A147708031DFA14A5
:100466007A080319762A033A0319412A7A183E2A8A
:10047600F61F742A722AF21F722A742A72088039A9
:10048600FA00F21376088039F6137A0603194F2A12
:100496007A080319722A742A770873020319562AEE
:1004A600031C6A2A6E2A7608720203195D2A031C47
:1004B6006A2A6E2A750871020319642A031C6A2ABD
:1004C6006E2A740870020319762A03186E2AFA082F
:1004D6000319742A722AFA080319722A742A031451
:0E04E6000800031008000314031508000800A6
:1004F4002000FB017308031D77080319D02A720832
:100504007606FA007708F3077E30031C8D2AF3027F
:100514000318D32A902AF302031CD62A7208F8007F
:100524007108FC007008FD00F817F6170310F201BB
:10053400F101F0011830A0007D1CAA2A7408F0070C
:1005440075080318750FF10776080318760FF2077C
:10055400F20CF10CF00CF80CFC0CFD0C0310A00BCD
:100564009E2AF21BBA2AF80DF00DF10DF20DF303D9
:100574007B1B701CCC2AF81FCC2AF00A0319F10A41
:100584000319F20A031DCC2AF20CF10CF00CF30A45
:100594000319D32AFA1FF2130030D82A013071202C
:1005A400D82A02307820D82A0430652000000800B8
:1005B4002000FD01F8017008031900347406FA00E4
:1005C400FA1BFD09FB01F41FE92AF409F40AF01FE0
:1005D400ED2AF009F00A70087404FA00FA1B112BD2
:1005E4007408F802F00D700DF80D7408F807F00D9A
:1005F4000630FC00700DF80D74087018F802701CB9
:10060400F807F00DFC0BFC2A701CF8077B181F2B55
:10061400FD1F0034F009F00AF809F80A0034F41F49
:100624001C2BF01B192B7008F800F0010A2BF001A9
:10063400F00A0034F009FB0AF22AF80A7408780276
:10064400031D0A2BF801F00AF01F0A2BFF340800DF
:1006540022002408F4002508F5007408F200750847
:10066400F300F40A0319F50A2608F0002708F1003C
:10067400A60A0319A70A7008840071088500720885
:1006840086007308870000088100720884007308DC
:100694008500000803194F2B2F2B2408F000250890
:0406A400F100080059
:1006A80020007008F8007108F000F101F201F30170
:1006B800FB01FC019630F300FA01F01F692BF809E1
:1006C800F009F80A0319F00AFA177008F100780817
:0A06D800F000F801F201F220080022
:1006E2007408003A031D8A2B7508003A031D8A2BF1
:1006F2007608003A031D8A2B7708003A031D8A2BDD
:10070200FF30F000FF30F1007F30F200FF30F300E5
:10071200242C200077080319182C730803191B2CAA
:10072200720876068039FA00F217F617A0017208ED
:10073200F8007108FC007008FD007408FD027508DD
:10074200031C750FFC027608031C760FF802F801F1
:10075200FC01FD01031CB42B0310F20CF10CF00C94
:10076200F80C0130A0007708F302031CBE2B7E3088
:100772002007F30703181E2CC32B7E302007F30734
:10078200031C212C1830FA07FD0DFC0DF80DF00D9D
:10079200F10DF20DA00D7408F0027508031C750F1F
:1007A200F1027608031C760FF202760DA004201CDB
:1007B200DC2B7D14E72B7408F00775080318750FFE
:1007C200F10776080318760AF2077D10FA031F3044
:1007D2007A05031DC52B7B1B7D1C0E2C0310F00D0F
:1007E200F10DF20DA00D7408F0027508031C750FCF
:1007F200F1027608031C760FF202760D200401390D
:10080200FD070318FC0A0319F80A031D0E2CF80C45
:10081200FC0CFD0CF30A03191E2CFA1FF8137808BE
:10082200F2007C08F1007D08F0000030232C01303A
:100832002322232C02307120232C04307820232CF5
:080842000830652000000800E9
:10084A002000FB0173080319612C7208FA00F217E1
:10085A008E30F302F31F642CF309F30A0830730293
:10086A00031C472CF300F10D7208F100F201083065
:10087A007302031C472CF300F10DF1017308031DE9
:10088A0003104F2C730803194F2C0310F20CF10CB0
:10089A00F30B4A2C7B1B711C592C031C592CF10A93
:1008AA000319F20AF21B702CFA1F732CF209F109D0
:1008BA00F10A0319F20A732CF201F101732C7B1469
:1008CA00FB1F762CF201FA1F762CFF30F200F100A2
:1008DA00FA0DF20C762C0130FC00782C0030FC006A
:1008EA00782CFF30FC00FC0803197C2C16227108B6
:0808FA00F0007208F100080093
:1009020020006B1021006E08EF0021216B140800FB
:100912002100EB01EC015F08E7006008E8006108D4
:10092200E9006208EA006A08FF3A031DA22C69087E
:10093200FF3A031DA22C6808FF3A031DA22C670888
:10094200FF3A031DB32C63082200A40021006408AF
:100952002200A5004830A6000030A7002A23033059
:10096200F000C62E01302100E500E91FC72C8030BF
:100972006906F0007008E900E50A63088600640869
:1009820087002D308100E30A0319E40A0030F000E9
:100992006A06031DD62C70086906031DD62C700842
:1009A2006806031DD62C6708003A031DE62C63086F
:1009B2002200A400210064082200A5003E30A60007
:1009C2000030A7002A23F001C62E21006A08FF3A50
:1009D200031DF52C6908003A031DF52C6808003A3E
:1009E200031DF52C6708003A031D072D630822003A
:1009F200A400210064082200A5003A30A6000030BD
:100A0200A7002A2321006508F000C62E0030F4005A
:100A12000030F5000030F6007F30F7006708F00084
:100A22006808F1006908F2006A08F3002B2201301D
:100A320003180030F000700803193C2D21006708EC
:100A4200F0006808F1006908F2006A08F30000305B
:100A5200F4000030F5002030F6008230F7007A22F0
:100A620070082100E7007108E8007208E9007308C5
:100A7200EA00EC03072D21000030F4000030F500FD
:100A82002030F6008230F7006708F0006808F100B5
:100A92006908F2006A08F3002B220130031C0030BF
:100AA200F00070080319722D21006708F000680831
:100AB200F1006908F2006A08F300CD30F400CC308E
:100AC200F5004C30F6007B30F7007A2270082100E6
:100AD200E7007108E8007208E9007308EA00EC0A0E
:100AE2003C2D2100FF306705F800FF306805F90052
:100AF2007F306905FA0000306A05FB007808F400CF
:100B02007908F5007A08F6007B08F700F435F50D50
:100B1200F60DF70D00306705F00000306805F100B2
:100B220000306905F200FF306A05F3007008E70043
:100B32007108E8007208E9007308EA0074086704A3
:100B4200F00075086804F10076086904F20077087D
:100B52006A04F3007008E7007108E8007208E9000F
:100B62007308EA007F306A02F0007008E600013084
:100B7200EA007008F4006708F0006808F1006908EC
:100B8200F2006A08F30074080319CD2DF035F10D57
:100B9200F20DF30DFF3EC52D7008E7007108E80065
:100BA2007208E9007308EA00630886006408870097
:100BB2006A08303E8100E30A0319E40A80306C06B9
:100BC200F0008030013A7002031CF02D8030063AAA
:100BD200F00080306C067002031CF02DFB2D6308C0
:100BE2008600640887002E308100E30A0319E40AB4
:100BF2000130EB000630E6006608003A0319562E73
:100C0200EA016708F0006808F1006908F2006A0862
:100C1200F300F035F10DF20DF30DF035F10DF20D9B
:100C2200F30D6708F0076808F13D6908F23D6A08AC
:100C3200F33D7008E7007108E8007208E9007308E4
:100C4200EA006708F0006808F1006908F2006A0823
:100C5200F300F035F10DF20DF30D7008E7007108A5
:100C6200E8007208E9007308EA0063088600640875
:100C720087006A08303E8100E30A0319E40A6B0820
:100C8200003A031D542EEC036C08003A031D542E47
:100C920063088600640887002E308100E30A031986
:100CA200E40A0130EB00E603FD2DFF306307840008
:100CB200FF30643D85000008303A031D652E013087
:100CC200E3020030E43B562EFF3063078400FF301E
:100CD200643D850000082E3A031D732E0130E302A5
:100CE2000030E43B6C08003A0319C02E630886000A
:100CF2006408870065308100E30A0319E40A803042
:100D02006C06F0008030003A70020318942E6308DB
:100D12008600640887002D308100E30A0319E40A83
:100D22006C08003CEC006C08E6008030093AF000E8
:100D320080306C0670020318AE2E0A30F40066088A
:100D4200F000DA2221006308860064088700700838
:100D5200303E8100E30A0319E40A0A30F40066080F
:100D6200F000DA227808F0002100630886006408A7
:100D720087007008303E8100E30A0319E40A630821
:0C0D82008600640887008101F001080071
:100D8E002100E10161085F0784000030603D8500AD
:100D9E0000080319DE2E61085F0784000030603DF5
:100DAE0085000008EE0081242100E10AC92E08000A
:100DBE00200073087706031DF12E72087606031DB8
:100DCE00F12E71087506031DF12E700874060319B5
:0A0DDE0003150800031108000800C7
:100DE800052F80302100DF00172FC030DF00172FBC
:100DF8009430DF00172FD430DF00172F8030DF004A
:100E0800172F21005F08013A0319F52E5F08023AEF
:100E18000319F92E5F08033A0319FC2E5F08043AF8
:100E28000319FF2E022F6003F0005F08F007700817
:100E3800DF007008EF0021216B102100E301630837
:100E4800610784000030623D850000080319382FCF
:100E58006308610784000030623D85000008EE00E9
:0E0E680081242100E30A232F20006B140800D0
:100E760021008D120D120C108D100D118D132000F6
:100E86008D120D128D130D118D100C10E420E4201F
:100E9600E4208D140C148D16DE208D12E4208D16A0
:100EA600DE208D12E4208D16DE208D12E4200C103B
:100EB6008D16DE208D12E4208D16DE208D128D100B
:100EC6008D178D16DE208D12E4208D130C148D16D1
:100ED600DE208D120C108D16DE208D12E4208D166C
:100EE600DE208D120C148D16DE208D12E4200C10DF
:100EF6008D16DE208D128D170D158D140C148D1682
:0A0F0600DE208D12E4206B140800B9
:100F100012001E00F003031D882FF103031D882F0C
:020F20000800C7
:100F220020007008F8007108F000F101F201F301ED
:100F3200FB01FC019630F300FA017008F100780819
:0A0F4200F000F801F201F2200800AF
:1010000021006508013EE800E9010030E93DE60104
:10101000E701F401F501F601F7015F08F00060084F
:10102000F1006108F2006208F30080312B22883160
:10103000013003180030F000700803193128210036
:1010400063088600640887002D308100E30A0319D5
:10105000E40A0030DF060030E0068030E1060030B0
:10106000E20621005F08F4006008F5006108F60060
:101070006208F700F001F101F201F30180312B2247
:101080008831013003180030F000700803198528FA
:101090000030F4000030F5000030F6007F30F7003B
:1010A00021005F08F0006008F1006108F2006208AA
:1010B000F30080312B228831013003180030F0001A
:1010C00070080319852821005F08F0006008F1000E
:1010D0006108F2006208F3000030F4000030F5000F
:1010E0002030F6008230F70080317A228831700893
:1010F0002100DF007108E0007208E1007308E200DF
:101100000130E6020030E73B482821000030F400BF
:101110000030F5002030F6008230F7005F08F00064
:101120006008F1006108F2006208F30080312B22B0
:1011300088310130031C0030F00070080319C12809
:101140000030F4000030F5002030F6008230F70067
:1011500021005F08F0006008F1006108F2006208F9
:10116000F30080317123883170082100DF0071089D
:10117000E0007208E1007308E200E60A0319E70ADA
:10118000852821006608E8076708E93D0130EA0084
:101190000030EB0000302200A0000030A100003041
:1011A000A2007F30A300803021006B06F000803069
:1011B00069067002031DDE2868086A020318022906
:1011C0000030F4000030F5002030F6008230F700E7
:1011D00022002008F0002108F1002208F200230874
:1011E000F30080317123883170082200A00071085B
:1011F000A1007208A2007308A3002100EA0A0319E3
:10120000EB0AD3280030F4000030F5000030F6007F
:101210008030F70022002008F0002108F1002208A9
:10122000F2002308F30080317123883121005F0828
:10123000F4006008F5006108F6006208F7008031EC
:101240007721883170082100DF007108E000720802
:10125000E1007308E2000030F4000030F5002030B7
:10126000F6008230F70080312B2288310130031CD8
:101270000030F00070080319492900302100DF0018
:101280000030E0000030E1007F30E200E60A0319A0
:10129000E70A210080306706F00080307002031DED
:1012A00053290030660203189429630886006408F5
:1012B000870030308100E30A0319E40A63088600DE
:1012C000640887002E308100E30A0319E40A8030A5
:1012D0006906F00080307002031D7029003068023A
:1012E000031876296808E6026908E73BFF30EA0040
:1012F000FF30EB0080306706F00080306B06700234
:10130000031D84296A08660203189429630886006D
:101310006408870030308100E30A0319E40A0130D1
:10132000EA020030EB3B7A29EA01EB0180306B06E0
:10133000F000803069067002031DA02968086A0267
:101340000318132A5F08F0006008F1006108F2003A
:101350006208F30080312524883170082100EC00F8
:101360007108ED003030F0076308860064088700DC
:1013700070088100E30A0319E40A6B086706031D7D
:10138000C32966086A06031DCE296308860064081F
:1013900087002E308100E30A0319E40A6C08F0008C
:1013A0006D08F10080315423883170082200A000BC
:1013B0007108A1007208A2007308A3007008F4006D
:1013C0007108F5007208F6007308F70021005F0845
:1013D000F0006008F1006108F2006208F30080315B
:1013E0002622883170082100DF007108E0007208B1
:1013F000E1007308E2000030F4000030F500203016
:10140000F6008230F70080317A228831700821009E
:10141000DF007108E0007208E1007308E200EA0AE8
:101420000319EB0A96296308860064088700810186
:021430000800B2
:101432001E24F030210099008C0123008C01210030
:101442008D0123008D0121008C170D148D152200B2
:101452001D149D1580313B2788310C302100EF008F
:1014620080312121883101302100EF00803121219A
:10147200883101302100DF000130E000A030E100BE
:101482000030E2008031F426883102302100DF0092
:101492000130E0005230E1000030E2008031F426F9
:1014A20088312930FB009630FC007F30FD00FD0BB7
:1014B200582AFC0B582AFB0B582A01302100EF0056
:1014C2008031212188313430980096019701991397
:1014D20007302500930005309A00200011111210E8
:1014E20021001115C0308B002000EC01ED01EE014E
:1014F200EF01CC01CD01CE01CF0101302100EF007F
:1015020080312121883100305106031D8A2A0030A2
:1015120050060319462BF401F501F601F7016308A1
:10152200F0006408F1006508F2006608F3008031FB
:10153200DF2688310130031D0030F00070080319E6
:10154200A82A2100DB01DC01DD01DE01EE2A2000F8
:101552006308F0006408F1006508F2006608F30011
:101562000030F4000030F5000030F6008130F70062
:1015720080317A2288317008F4007108F50072080F
:10158200F6007308F7000030F0002430F1007430E8
:10159200F2009730F3008031712388310030F4007B
:1015A2000030F5000030F6008230F7008031712300
:1015B20088310030F4000030F5000030F60083304E
:1015C200F70080317A22883170082100DB0071082F
:1015D200DC007208DD007308DE00F401F501F6019B
:1015E200F7015708F0005808F1005908F2005A08AC
:1015F200F3008031DF2688310130031D0030F00016
:10160200700803190A2B2100CF01D001D101D201A8
:10161200452B21005708F0005808F1005908F20044
:101622005A08F3000030F4000030F5000030F600F4
:101632008130F70080317A2288317008F400710815
:10164200F5007208F6007308F7000030F00024304D
:10165200F1007430F2009730F30080317123883149
:101662000030F4000030F5000030F6008230F70060
:1016720080317123883170082100CF007108D000B9
:101682007208D1007308D2004F2B2100DB01DC016C
:10169200DD01DE01CF01D001D101D2012000D00154
:1016A200D10100302100D3000030D4007A30D500BF
:1016B2008D30D60000302000E7000030E800003016
:1016C200E9008430EA0021005B08DF005C08E000EA
:1016D2005D08E1005E08E200B130E3000030E400A2
:1016E20080318924883101302100DF000130E0009F
:1016F200B130E1000030E2008031F426883132302E
:101702002100DF000030E0008031C72688314F0819
:10171200DF005008E0005108E1005208E200B13059
:10172200E3000030E4008031892488310230210056
:10173200DF000130E000B130E1000030E200803132
:10174200F426883102302100DF000D30E00029301C
:10175200E1000030E2008031F42688312100530894
:10176200DF005408E0005508E1005608E200B130FD
:10177200E3000030E4000230E50000200230EF0018
:1017820080312121883103302100DF000130E00067
:10179200B130E1000030E2008031F42688310330BC
:1017A2002100DF000930E0002D30E1000030E200CE
:1017B2008031F426883167082100DF0020006808A4
:1017C2002100E000200069082100E10020006A08F1
:1017D2002100E200B130E3000030E4000230E50015
:1017E20000200430DF000130E000B130E1000030C1
:1017F200E2008031F426883140302100DF000030E1
:10180200E0008031C72688310D30FB002D30FC000E
:10181200D730FD00FD0B0B2CFC0B0B2CFB0B0B2C08
:10182200000000002000EC01ED01EE01EF017E2A34
:02183200192C6F
:10183C00A6308400873085003A30F0000130F1008A
:10184C002930860000308700803188278831E030CD
:10185C008400873085001130F0000130F100A03099
:10186C00860000308700803188278831F130840071
:10187C00873085000430F0000130F10063308600C1
:0C188C0000308700803188278831080078
:080F4C00203448347A340034EB
:0A0F540020344B3448347A34003462
:100F5E002034203420342034203448347A34003481
:080F6E0049344E3446340034CE
:040F760030340034DF
:100F7A0020342034203420344D3468347A34003418
:080F8A004E3461344E34003492
:080F9200003400340034003487
:040F9A0000340034EB
:100F9E0043346C34613473346534733420346434C4
:100FAE0065342034753450342F3475344334203442
:020FBE000034FD
:100FC0004634723465346334753465346E34633456
:100FD00069346D346534743472346F3420342034A1
:020FE0000034DB
:080FE200003400342034823495
:020000040001F9
:04000E00043F131781
:00000001FF
