:02000000EB2DE6
:1000060021003A082400910014180A28072811082C
:04001600F0000800EE
:10001A0023009E18122800000D2821003A08230008
:04002A009A00080030
:10002E002400141924281F301605F1007108003A17
:0E003E00031D24280130F0002528F0010800E1
:0A004C0071088A00700882000800A5
:10005600200022082100B600200023082100B70056
:10006600200024082100B800200025082100B9003E
:10007600B401B5013508123C031D432834088E3CF3
:10008600031C4F281720700803194A284F282100FF
:10009600B40A0319B50A3D28210012303502031DA2
:1000A60056288F303402031C5B287B30F0008728EB
:1000B600240016142400161C862820002208230477
:1000C600240425040319852821003608370438043A
:1000D6003904031D7E282000600886006108870019
:1000E6000530810041315E08F0005F08F1002620EE
:1000F6000130F000872801302100B6020030B73BFE
:0A010600B83BB93B5D28F00108008A
:0601100024001615080092
:1001160020009111210034082400910020002208BB
:100126002100B500200023082100B6002000240885
:100136002100B700200025082100B8002400141D66
:10014600CA28200022082304240425040319C928E8
:1001560021003508360437043804031DC228200060
:1001660060088600610887000430810041315E081E
:10017600F0005F08F10026200130F0000A29013066
:100186002100B5020030B63BB73BB83BA1282000A2
:1001960022082100B500200023082100B600200017
:1001A60024082100B700200025082100B8002000FF
:1001B600911902292208230424042504031901297C
:1001C60021003508360437043804031DFA282000B8
:1001D60060088600610887000430810041315E08AE
:1001E600F0005F08F10026200130F0000A290130F6
:1001F6002100B5020030B63BB73BB83BDA282400F5
:10020600161B0729F0010A2916150230F00008000E
:100216002B20200052082100B4008B20200021084A
:0C02260021003304B4008B208820080065
:0E023200F201F101F001F801F30100300800C3
:100240002000F801F9011030FC00710DF80DF90DD6
:100250007408F8027508031C750FF9020318372992
:100260007408F80775080318750FF9070310F00DE7
:08027000F10DFC0B252908002B
:10027800F00120005518F00A21003208F004700837
:10028800B200FB307005B3000B21000004302100E0
:100298003204B3000B210000FB3021003205B3000B
:1002A8000B212000D301D40100305402031D5E2924
:1002B8001430530203186429D30A0319D40A58299D
:0202C80008002C
:1002CA007B15FB1F6F290130F300F201F101F001E8
:0802DA00FA0DF20CFF300800E0
:0802E200FA1FF21300300800BE
:1002EA002100AF0105302F02031885292F082D0799
:1002FA00860000302E3D870020308100AF0A772922
:10030A002F082D07860000302E3D87008101AF039C
:10031A002F082D07B00000302E3DB1000A30F4003E
:10032A00F5012B08F0002C08F10020217808F000D4
:10033A007908F1003030F0072100300886003108D2
:10034A008700700881000A30F400F5012B08F000DC
:10035A002C08F100202170082100AB007108AC00C4
:10036A0000307106031DBB2900307006031DBE292B
:08037A00C029AF038D29080022
:1003820020005510F03021002B05B2003C21210045
:100392002B08B200B235B235B235B235F030B20503
:1003A2003C2121002B08013A0319DC292B08023ACF
:1003B2000319DC29EB292000D301D40101305402B6
:1003C200031DE529903053020318EB29D30A0319C0
:0603D200D40ADF29080037
:1003D8007B14FB1FF729F201FA1FFF30F200F1002E
:0A03E800F000FA0DF20CFF300800DF
:1003F2000630FC002B30FD00FD0BFD29FC0BFD2916
:020402000800F0
:10040400FB14FB1F0C2AFF30F300F200F100F00094
:08041400FA0DF20CFF300800A4
:06041C00FB15FF30080093
:10042200A0017208031D262A7108F2007008F1006B
:10043200F001A0157208031D262A7108F200F101CD
:10044200A011201672080319342A2008F302031D92
:10045200031C382A0310F21B3C2AF00DF10DF20D99
:10046200F30B2C2A382A0130FC0019213F2A0230D2
:0E047200FC0065213F2A0430FC0071210800C7
:1004800020007008F8007108F000F101F201F3019A
:10049000FB01FC019630F300FA017008F1007808C6
:0A04A000F000F801F201112208003B
:1004AA002000FB017308031D77080319AB2A7208A1
:1004BA007606FA007708F3077E30031C682AF302EF
:1004CA000318AE2A6B2AF302031CB12A7208F80039
:1004DA007108FC007008FD00F817F6170310F20106
:1004EA00F101F0011830A0007D1C852A7408F0077C
:1004FA0075080318750FF10776080318760FF207C7
:10050A00F20CF10CF00CF80CFC0CFD0C0310A00B17
:10051A00792AF21B952AF80DF00DF10DF20DF3036D
:10052A007B1B701CA72AF81FA72AF00A0319F10AD5
:10053A000319F20A031DA72AF20CF10CF00CF30AB4
:10054A000319AE2AFA1FF2130030B32A0130192117
:10055A00B32A02300222B32A0430652100000800BF
:10056A007408003A031DCE2A7508003A031DCE2AE4
:10057A007608003A031DCE2A7708003A031DCE2AD0
:10058A00FF30F000FF30F1007F30F200FF30F3005F
:10059A00682B2000770803195C2B730803195F2B5B
:1005AA00720876068039FA00F217F617A001720867
:1005BA00F8007108FC007008FD007408FD02750857
:1005CA00031C750FFC027608031C760FF802F8016B
:1005DA00FC01FD01031CF82A0310F20CF10CF00CCB
:1005EA00F80C0130A0007708F302031C022B7E30BE
:1005FA002007F3070318622B072B7E302007F30727
:10060A00031C652B1830FA07FD0DFC0DF80DF00DD3
:10061A00F10DF20DA00D7408F0027508031C750F98
:10062A00F1027608031C760FF202760DA004201C54
:10063A00202B7D142B2B7408F00775080318750FEF
:10064A00F10776080318760AF2077D10FA031F30BD
:10065A007A05031D092B7B1B7D1C522B0310F00D01
:10066A00F10DF20DA00D7408F0027508031C750F48
:10067A00F1027608031C760FF202760D2004013986
:10068A00FD070318FC0A0319F80A031D522BF80C7C
:10069A00FC0CFD0CF30A0319622BFA1FF8137808F5
:1006AA00F2007C08F1007D08F0000030672B013071
:1006BA000E22672B02301921672B04300222672B86
:0806CA00083065210000080062
:1006D2002100A70120006C08F1000130F000710830
:1006E2000319762BF035FF3E712B7008EF006A0874
:1006F20084006B08850070080005F1007108013064
:10070200031D0030F0006E08F0060319A32B6D08DC
:10071200003C0318902BF921F921ED03882B6A087C
:1007220084006B0885006F080005F1007108013034
:10073200031D0030F0006E08F0060319A32BFF30F2
:0C0742002100A70021002708F00008009B
:10074E00C82B20006A08C03E2100AB00AB03C121BC
:10075E00D62B20006A08943E2100AB00AB03C121CA
:10076E00D62B20006A08D43E2100AB00AB03C1217A
:10077E00D62B20006A08803E2100AB00AB03C121BE
:10078E00D62B20006B08023A0319A82B6B08033AEC
:10079E000319B02B6B08043A0319B82BC02B0800B1
:1007AE002000EC0155146C086A07840000306B3D84
:1007BE0085000008003A0319032C6C086A078400B0
:1007CE0000306B3D8500F03000052100B2003C2169
:1007DE006C086A07840000306B3D85000008F1004C
:1007EE0071082100B200B235B235B235B235F030F3
:0A07FE00B2053C21EC0ADA2B0800DA
:1008080020006A08D2002100B3010B212000D30187
:10081800D4011F305402031D132C40305302031817
:10082800192CD30A0319D40A0D2C03302100AB006C
:10083800C1212000D301D40103305402031D262C0A
:10084800E830530203182C2CD30A0319D40A202C9D
:1008580003302100AB00C1212000D301D4010330B3
:100868005402031D392CE830530203183F2CD30AD5
:100878000319D40A332C03302100AB00C121200016
:10088800D301D40103305402031D4C2CE830530229
:100898000318522CD30A0319D40A462C023021001B
:1008A800AB00C1212000D301D40103305402031D41
:1008B8005F2CE83053020318652CD30A0319D40AB5
:1008C800592C28302100AB00C1212000D301D401CC
:1008D80027305402031D722C103053020318782C51
:1008E800D30A0319D40A6C2C0C302100AB00C121A7
:1008F8002000D301D40127305402031D852C103069
:10090800530203188B2CD30A0319D40A7F2C013005
:100918002100AB00C1212000D301D40127305402AB
:10092800031D982C1030530203189E2CD30A031968
:10093800D40A922C06302100AB00C1212000D3013B
:10094800D40127305402031DAB2C10305302031876
:0C095800B12CD30A0319D40AA52C080006
:1009640017302000DA000030DB000030DC000030FB
:10097400DD002B30E6000030E7000030E8000030F6
:10098400E900FF30CA00FF30CB000030CC0000305B
:10099400CD00FF30CE00FF30CF00FF30D000FF305D
:1009A400D1008B30D6000030D700B430D8000030EE
:1009B400D9008830C4000030C5000030C6000030C3
:1009C400C70024001413941321000C158C14383020
:0609D4002400950008005C
:1009DA0012001E00F003031DED2CF103031DED2C84
:0209EA00080003
:1009EC002000FB01FC01FA0173080319342DF217E6
:1009FC008E30F302F31B052D0319052D372DF3094A
:100A0C00F30A08307302031C1A2DF300F10D72085F
:100A1C00F100F20108307302031C1A2DF10DF101E3
:100A2C007308031D0310222D73080319222D0310C4
:100A3C00F20CF10CF30B1D2D7B1B711C2C2D031CCC
:100A4C002C2DF10A0319F20AF21B432DFA1F462D25
:100A5C00F209F109F10A0319F20A462DF201F1012A
:100A6C00462D7B14FB1F492DF201FA1F492DFF3037
:100A7C00F200F100FA0DF20C492D0130FC004B2D67
:100A8C000030FC004B2DFF30FC00FC0803194F2DEF
:0C0A9C00EC217108F0007208F100080065
:100AA8002100A701A80120006A082100A900200050
:100AB8006B082100AA00803020006B06F00080300F
:100AC8007002031D692D00306A0203187C2D013065
:100AD8002100A7000030A80020006A08003C21007F
:100AE800A90020006B08031C013E2100AA01AA02EC
:100AF80021002908AB002A08AC0020006C0821005E
:100B0800AD0020006D082100AE00752106302000E0
:100B1800EE000030EF006F08003C031D952D6E08B5
:100B2800003C0318B02D6E086C0786006F086D3DF9
:100B3800870001306E02F00000306F3BF100700852
:100B48006C07840071086D3D850000088100013044
:100B5800EE020030EF3B8F2D6C0886006D08870091
:100B6800203081002100270828040319D82D2000EF
:100B7800EE01EF016E086C0784006F086D3D85007B
:100B88000008203A031DCC2DEE0A0319EF0ABE2DEA
:100B98000130EE020030EF3B6E086C0786006F08EC
:0A0BA8006D3D87002D30810008002C
:100BB20020005514F0306A052100B2003C216A0879
:100BC2002100B200B235B235B235B235F030B205DD
:040BD2003C210800BA
:100BD600E626F0302100990023000C1421000C14A5
:100BE60023008C1121008C1524008C1521009513EF
:100BF60023008C1221008C12503024009200B22463
:100C06004E302000EA00042421001D140B30FC00A5
:100C16006230FD00FD0B0D2EFC0B0D2E000080300A
:100C26009E0021001D139D121D129D111D119D1464
:100C360022008C1621009D1C212E1D2E22008C12B6
:100C460021001C082000C200C30121001B0820004F
:100C5600C800C9014208F100F0017008C20071081D
:100C6600C3004808F0044908F1047008C20071087E
:100C7600C30040220030F4000030F5002030F600BA
:100C86008130F70055220030F400C030F5007F3087
:100C9600F6008830F700B5220030F4004030F50049
:100CA6001C30F6008C30F70055227008E2007108FF
:100CB600E3007208E4007308E500F6247008C20039
:100CC6007108C3000C30EA000030EB000330EC0082
:100CD6000130ED00EE01692370080319B42E0230CD
:100CE6002000EA000130EB00A7232E302000EA00A6
:100CF6000030EB00D7230530EA000330EB00A723D2
:100D060020004208EA004308EB00A030EC00003067
:100D1600ED005425A0302000EA000030EB00D72378
:100D2600DF30EA00D9254330EA00D9250630EA004B
:100D36000430EB00A72321002108A0002208A1000F
:100D46002308A2002E30A300A0302000EA000030C5
:100D5600EB00D723DF30EA00D9254330EA00D92556
:100D6600C02E20000E30EA000130EB00A72326300B
:0E0D76002000EA000030EB00D723142EC12E1F
:100DCC00C5308400863085002130F0000130F10000
:0C0DDC002130860000308700ED24080064
:020D8A0008342B
:080D8C0000340034003400348F
:100D94006134623469346534723474346F340034C9
:100DA40049346E3474346534723472347534703446
:100DB40074346F3472342034703475346C34733456
:080DC400613464346F34003423
:020000040001F9
:04000E00A43F1317E1
:00000001FF
