:02000000162EBA
:1000060023009E1808280000032821003D0823002D
:040016009A00080044
:10001A0021003D08240099001C18142811281908E9
:04002A00F0000800DA
:10002E0021003D082400910014181E281B281108D9
:04003E00F0000800C6
:10004200240014192E281F301605F1007108003AF9
:0E005200031D2E280130F0002F28F0010800B9
:0A00600071088A0070088200080091
:10006A00200035082100B900200036082100BA0016
:10007A00200037082100BB00200038082100BC00FE
:10008A00B701B8013808123C031D4D2837088E3CC9
:10009A00031C5928212070080319542859282100C3
:1000AA00B70A0319B80A4728210012303802031D7B
:1000BA0060288F303702031C65287B30F0009128B6
:1000CA00240016142400161C902820003508360433
:1000DA003704380403198F28210039083A043B04ED
:1000EA003C04031D88282000690886006A088700E6
:1000FA000530810041316708F0006808F1003020BE
:10010A000130F000912801302100B9020030BA3BD9
:0A011A00BB3BBC3B6728F001080066
:060124002400161508007E
:10012A002000911121003708240091002000350891
:10013A002100B800200036082100B9002000370845
:10014A002100BA00200038082100BB002400141D39
:10015A00D428200035083604370438040319D32874
:10016A002100380839043A043B04031DCC28200036
:10017A00690886006A0887000430810041316708EF
:10018A00F0006808F10030200130F0001429013035
:10019A002100B8020030B93BBA3BBB3BAB28200078
:1001AA0035082100B800200036082100B9002000D7
:1001BA0037082100BA00200038082100BB002000BF
:1001CA0091190C29350836043704380403190B2908
:1001DA002100380839043A043B04031D042920008D
:1001EA00690886006A08870004308100413167087F
:1001FA00F0006808F10030200130F00014290130C5
:10020A002100B8020030B93BBA3BBB3BE4282400CA
:10021A00161B1129F001142916150230F0000800E6
:10022A00352020004F082100B7009520200039080A
:0C023A0021003604B70095209220080037
:10024600F00120005218F00A21003508F004700869
:10025600B500FB307005B600152100000430210002
:100266003504B60015210000FB3021003505B60027
:1002760015212000D001D10100305102031D45296E
:100286001430500203184B29D00A0319D10A3F290A
:0202960008005E
:0C0298003A30FD00FD0B4E29000008006C
:1002A4002000F801F9011030FC00710DF80DF90D72
:1002B4007408F8027508031C750FF90203186929FC
:1002C4007408F80775080318750FF9070310F00D83
:0802D400F10DFC0B5729080095
:1002DC007B15FB1F78290130F300F201F101F001CD
:0802EC00FA0DF20CFF300800CE
:0802F400FA1FF21300300800AC
:0E02FC00F201F101F001F801F30100300800F9
:10030A007B14FB1F9029F201FA1FFF30F200F10063
:0A031A00F000FA0DF20CFF300800AD
:100324000630FC002B30FD00FD0B9629FC0B9629B2
:020334000800BF
:1003360053302000EB000230EC00AE30ED00003010
:0E034600EE00F03021009E009D011D14080005
:100354002100B201053032020318BA2932083007ED
:1003640086000030313D870020308100B20AAC297C
:100374003208300786000030313D87008101B20326
:1003840032083007B3000030313DB4000A30F400C5
:10039400F5012E08F0002F08F10052217808F00032
:1003A4007908F1003030F007210033088600340862
:1003B4008700700881000A30F400F5012E08F0006F
:1003C4002F08F100522170082100AE007108AF001F
:1003D40000307106031DF02900307006031DF32957
:0803E400F529B203C22908004B
:1003EC0020005210F03021002E05B50023212100F1
:1003FC002E08B500B535B535B535B535F030B50584
:10040C00232121002E08013A0319112A2E08023A41
:10041C000319112A202A2000D001D10101305102E8
:10042C00031D1A2A903050020318202AD00A0319EF
:06043C00D10A142A080099
:10044200A0017208031D362A7108F2007008F1003B
:10045200F001A0157208031D362A7108F200F1019D
:10046200A011201672080319442A2008F302031D62
:10047200031C482A0310F21B4C2AF00DF10DF20D59
:10048200F30B3C2A482A0130FC007E214F2A02301D
:0E049200FC006E214F2A0430FC007A21080085
:0604A000FB15FF3008000F
:1004A600833021009D052E08F000F035F0357008E8
:1004B6009D044C219D149D1C612A5E2A1C08F10096
:0C04C600F0011B08F0040030F1040800F5
:1004D200FB14FB1F732AFF30F300F200F100F0005F
:0804E200FA0DF20CFF300800D6
:1004EA002100A9012608F1000130F0007108031962
:1004FA00812AF035FF3E7C2A70082000EF00210097
:10050A00240884002508850070080005F100710898
:10051A000130031D0030F0002808F0060319B12A43
:10052A002708003C03189D2A92219221A703952AA5
:10053A00240884002508850020006F080005F100C2
:10054A0071080130031D0030F00021002808F00670
:0E055A000319B12AFF30A9002908F00008009B
:100568009B2120006F082100AE0053221D100800B7
:100578002000FB01FC01FA0173080319FA2AF2179B
:100588008E30F302F31BCB2A0319CB2AFD2AF30979
:10059800F30A08307302031CE02AF300F10D720815
:1005A800F100F20108307302031CE02AF10DF10199
:1005B8007308031D0310E82A73080319E82A0310B7
:1005C800F20CF10CF30BE32A7B1B711CF22A031CBF
:1005D800F22AF10A0319F20AF21B092BFA1F0C2B53
:1005E800F209F109F10A0319F20A0C2BF201F101DF
:1005F8000C2B7B14FB1F0F2BF201FA1F0F2BFF3064
:10060800F200F100FA0DF20C0F2B0130FC00112B57
:100618000030FC00112BFF30FC00FC080319152BDF
:0C06280085217108F0007208F100080044
:10063400372B21002408C03EAE00AE03F621452B23
:1006440021002408943EAE00AE03F621452B210080
:100654002408D43EAE00AE03F621452B2100240825
:10066400803EAE00AE03F621452B21002508023A58
:1006740003191B2B2508033A0319222B2508043AD6
:080684000319292B302B08009B
:10068C002000EF0152146F08210024078400003071
:10069C00253D85000008003A0319742B20006F08D3
:1006AC002100240784000030253D8500F030000532
:1006BC00B50023216F082100240784000030253D5C
:1006CC0085000008F1007108B500B535B535B535B4
:0E06DC00B535F030B5052321EF0A492B080093
:1006EA002100AA01AB012408AC002508AD00803026
:1006FA002506F00080307002031D852B003024028D
:10070A000318932B0130AA000030AB002408003CE8
:10071A00AC002508031C013EAD01AD022C08AE0059
:10072A002D08AF002608B0002708B100AA2106301C
:10073A00A8000030A9002908003C031DA62B2808A0
:10074A00003C0318C12B2808260786002908273DE4
:10075A00870001302802F0000030293BF1007008C0
:10076A00260784007108273D8500000881000130B2
:10077A00A8020030A93BA02B26088600270887007C
:10078A00203081002A082B040319E72BA801A901AC
:10079A002808260784002908273D85000008203AF2
:1007AA00031DDB2BA80A0319A90ACD2B0130A802C5
:1007BA000030A93B2808260786002908273D87001C
:0607CA002D308100080043
:1007D00020007008F8007108F000F101F201F30147
:1007E000FB01FC019630F300FA017008F100780873
:0A07F000F000F801F20121220800D8
:1007FA0021302000D3000030D4000030D500003072
:10080A00D6003530DF000030E0000030E100003073
:10081A00E200FF30DB00FF30DC000030DD0000309A
:10082A00DE00FF30D700FF30D800FF30D900FF309C
:10083A00DA009530E3000030E400B730E50000301C
:10084A00E60092302100A0000030A1000030A20092
:10085A000030A30024001413941321008D140D16E4
:08086A0038302400950008005D
:100872007408003A031D522C7508003A031D522CCD
:100882007608003A031D522C7708003A031D522CB9
:10089200FF30F000FF30F1007F30F200FF30F30054
:1008A200EC2C200077080319E02C73080319E32CC1
:1008B200720876068039FA00F217F617A00172085C
:1008C200F8007108FC007008FD007408FD0275084C
:1008D200031C750FFC027608031C760FF802F80160
:1008E200FC01FD01031C7C2C0310F20CF10CF00C3A
:1008F200F80C0130A0007708F302031C862C7E302E
:100902002007F3070318E62C8B2C7E302007F30711
:10091200031CE92C1830FA07FD0DFC0DF80DF00D43
:10092200F10DF20DA00D7408F0027508031C750F8D
:10093200F1027608031C760FF202760DA004201C49
:10094200A42C7D14AF2C7408F00775080318750FDA
:10095200F10776080318760AF2077D10FA031F30B2
:100962007A05031D8D2C7B1B7D1CD62C0310F00DEC
:10097200F10DF20DA00D7408F0027508031C750F3D
:10098200F1027608031C760FF202760D200401397B
:10099200FD070318FC0A0319F80A031DD62CF80CEC
:1009A200FC0CFD0CF30A0319E62CFA1FF813780865
:1009B200F2007C08F1007D08F0000030EB2C0130E1
:1009C2005022EB2C02307E21EB2C04306922EB2CDE
:0809D20008306E21000008004E
:1009DA0020005214F0306F052100B50023216F0862
:1009EA002100B500B535B535B535B535F030B505A5
:0409FA0023210800AD
:1009FE0020006F08CF002100B60115212000D00184
:100A0E00D1011F305102031D0E2D4030500203182C
:100A1E00142DD00A0319D10A082D03302100AE007F
:100A2E00F6212000D001D10103305102031D212DEA
:100A3E00E83050020318272DD00A0319D10A1B2DB6
:100A4E0003302100AE00F6212000D001D101033089
:100A5E005102031D342DE830500203183A2DD00AEE
:100A6E000319D10A2E2D03302100AE00F6212000ED
:100A7E00D001D10103305102031D472DE830500241
:100A8E0003184D2DD00A0319D10A412D0230210031
:100A9E00AE00F6212000D001D10103305102031D1A
:100AAE005A2DE83050020318602DD00A0319D10ACE
:100ABE00542D28302100AE00F6212000D001D101A6
:100ACE0027305102031D6D2D103050020318732D67
:100ADE00D00A0319D10A672D0C302100AE00F62181
:100AEE002000D001D10127305102031D802D10307E
:100AFE0050020318862DD00A0319D10A7A2D01301F
:100B0E002100AE00F6212000D001D1012730510284
:100B1E00031D932D103050020318992DD00A03197E
:100B2E00D10A8D2D06302100AE00F6212000D00115
:100B3E00D10127305102031DA62D1030500203188B
:0C0B4E00AC2DD00A0319D10AA02D08001C
:100B5A002000FB017308031D77080319032E72088E
:100B6A007606FA007708F3077E30031CC02DF302DD
:100B7A000318062EC32DF302031C092E7208F8006F
:100B8A007108FC007008FD00F817F6170310F2014F
:100B9A00F101F0011830A0007D1CDD2D7408F0076A
:100BAA0075080318750FF10776080318760FF20710
:100BBA00F20CF10CF00CF80CFC0CFD0C0310A00B61
:100BCA00D12DF21BED2DF80DF00DF10DF20DF30301
:100BDA007B1B701CFF2DF81FFF2DF00A0319F10A69
:100BEA000319F20A031DFF2DF20CF10CF00CF30AA3
:100BFA000319062EFA1FF21300300B2E01307E2144
:100C0A000B2E023069220B2E04306E2100000800E0
:100C1A0012001E00F003031D0D2EF103031D0D2EFD
:020C2A000800C0
:100C2C00EE26F0302100990023000C1421000C1446
:100C3C0023008C1121008C1524008C152100951398
:100C4C0023008C1221008C12503024009200FD23C2
:100C5C004E302000EF00FF2422008C162000EF0104
:100C6C00B42270082000C6007108C70022008C1244
:100C7C00E8230030F4000030F5002030F60081301D
:100C8C00F700AD250030F400C030F5007F30F600E1
:100C9C008830F70039240030F4004030F5001C3067
:100CAC00F6008C30F700AD257008C2007108C30047
:100CBC007208C4007308C500BC227008C600710815
:100CCC00C7000C302100A4000030A5000330A600A2
:100CDC000130A700A801752270080319BC2E023040
:100CEC00A4000130A5001A2321302100A4000030FB
:100CFC00A500462305302100A4000330A5001A23CB
:100D0C00200046082100A400200047082100A5006F
:100D1C004830A6000030A70075234830A4000030EE
:100D2C00A5004623DF302000EF00ED244330EF0018
:100D3C00ED2406302100A4000430A5001A23200065
:100D4C004908C8004A08C9004B08CA002E30CB001D
:100D5C0048302100A4000030A5004623DF302000DD
:100D6C00EF00ED244330EF00ED24C82E0E302100AF
:100D7C00A4000130A5001A233A302100A400003051
:080D8C00A5004623322EC92EFA
:100DDC00CD308400863085002130F0000130F100E8
:0C0DEC0021308600003087000D26080032
:100D9A0049346E3474346534723472347534703450
:100DAA0074346F3472342034703475346C34733460
:080DBA00613464346F3400342D
:080DC200003400340034003459
:020DCA000834EB
:100DCC006134623469346534723474346F34003491
:020000040001F9
:04000E00A43F1317E1
:00000001FF
