:020000008E2A46
:1000060020006A082400910014180A2807281108FD
:04001600F0000800EE
:10001A0023009E18122800000D2820006A082300D9
:04002A009A00080030
:10002E002400141924281F301605F1007108003A17
:0E003E00031D24280130F0002528F0010800E1
:0A004C0071088A00700882000800A5
:100056002000911164082400910020003508E50075
:100066003608E6003708E7003808E8002400141DC3
:1000760060282000350836043704380403195F2841
:100086006508660467046804031D5828430886004B
:10009600440887000430810041314108F0004208DD
:1000A600F10026200130F000962801302000E502FC
:1000B6000030E63BE73BE83B392820003508E50001
:1000C6003608E6003708E7003808E80091198E2858
:1000D600350836043704380403198D286508660484
:1000E60067046804031D86284308860044088700C1
:1000F6000430810041314108F0004208F100262019
:100106000130F000962801302000E5020030E63B81
:10011600E73BE83B69282400161B9328F001962844
:0801260016150230F00008007C
:06012E0024001615080074
:1001340020003508E6003608E7003708E8003808EC
:10014400E900E401E5016508123C031DAB286408DD
:100154008E3C031CB728172070080319B228B7284F
:100164002000E40A0319E50AA528200012306502DC
:10017400031DBE288F306402031CC3287B30F000AB
:10018400ED28240016142400161CEC282000350841
:100194003604370438040319EB2866086704680436
:1001A4006904031DE42843088600440887000530D9
:1001B400810041314108F0004208F100262001305D
:1001C400F000ED2801302000E6020030E73BE83B78
:0801D400E93BC528F001080019
:1001DC009A2020003F08E4002B2020003408630400
:0801EC00E4002B20972008001D
:1001F400F00120004018F00A6208F0047008E200E0
:10020400FB307005E300EE2000000430200062049F
:10021400E300EE200000FB3020006205E300EE2046
:100224002000BD01BE0100303E02031D1B29143015
:100234003D0203182129BD0A0319BE0A1529080025
:1002440020004010F0306105E200FA206108E2006D
:10025400E235E235E235E235F030E205FA206108B4
:10026400013A03193A296108023A03193A2948293B
:10027400BD01BE0101303E02031D422990303D0202
:0E02840003184829BD0A0319BE0A3C290800C8
:10029200632920005D08C03EE100E10322217129AB
:1002A2005D08943EE100E103222171295D08D43EFC
:1002B200E100E103222171295D08803EE100E103B2
:1002C2002221712920005E08023A03194A295E0898
:1002D200033A031951295E08043A031957295D2983
:0202E200080012
:1002E4002000F8010830FC00700DF80D7408F802C5
:1002F40003187E29F8070310F00DFC0B762908007B
:100304002000DF0140145F085D07840000305E3D7B
:1003140085000008003A0319AC295F085D078400D2
:1003240000305E3D8500F0300005E200FA205F08F1
:100334005D07840000305E3D85000008F10071080F
:10034400E200E235E235E235E235F030E205FA204A
:06035400DF0A8529080004
:10035A0020005D08BF00E301EE202000BD01BE01C0
:10036A001F303E02031DBB2940303D020318C1293C
:10037A00BD0A0319BE0AB5290330E1002221BD01D5
:10038A00BE0103303E02031DCC29E8303D020318AA
:10039A00D229BD0A0319BE0AC6290330E100222167
:1003AA00BD01BE0103303E02031DDD29E8303D02D6
:1003BA000318E329BD0A0319BE0AD7290330E1004D
:1003CA002221BD01BE0103303E02031DEE29E830A1
:1003DA003D020318F429BD0A0319BE0AE8290230AE
:1003EA00E1002221BD01BE0103303E02031DFF29A7
:1003FA00E8303D020318052ABD0A0319BE0AF92985
:10040A002830E1002221BD01BE0127303E02031D32
:10041A00102A10303D020318162ABD0A0319BE0A13
:10042A000A2A0C30E1002221BD01BE0127303E021A
:10043A00031D212A10303D020318272ABD0A031979
:10044A00BE0A1B2A0130E1002221BD01BE0127306C
:10045A003E02031D322A10303D020318382ABD0A13
:10046A000319BE0A2C2A0630E1002221BD01BE0171
:10047A0027303E02031D432A10303D020318492A41
:0A048A00BD0A0319BE0A3D2A08004E
:1004940012001E00F003031D4A2AF103031D4A2A19
:0204A40008004E
:1004A60017302000D1000030D2000030D3000030D9
:1004B600D4009A30D5000030D6000030D700003086
:1004C600D800FF30D900FF30DA000030DB00003002
:1004D600DC00FF30CD00FF30CE00FF30CF00FF3014
:1004E600D0002B30C5000030C6006430C700003095
:1004F600C8009730C9000030CA000030CB00003079
:10050600CC0024001413941321000C158C143830DD
:060516002400950008001E
:10051C00FA22F0302100990050302400920053222E
:10052C004E302000DD00AD210230DD000130DE0058
:10053C0049212030DD000030DE0082216430F400DF
:10054C003308F000722130307007B9000A30F40023
:10055C003308F00072210A30F40072217808F000A0
:10056C0030307007BA000A30F4003308F000722102
:10057C007808F00030307007BB000530DD00023029
:10058C00DE0049213930DD000030DE008221B30A63
:10059C001530FB004B30FC00BE30FD00FD0BD42AA7
:0E05AC00FC0BD42AFB0BD42A0000A42ADC2A64
:1005F400E0308400823085001930F0000130F100D1
:0C06040020308600003087004A220800E9
:1005C000483465346C346C346F342C3420347734D4
:1005D0006F3472346C346434203432343034323416
:0605E00032342134003426
:0205E6000034DF
:0205E8000834D5
:0805EA00003400340034003439
:020000040001F9
:04000E00A43F1317E1
:00000001FF
