:02000000202BB3
:0A0006008530FD00FD0B0528080001
:100010003A30FC002330FD00FD0B0C28FC0B0C28B3
:020020000800D6
:0C0022000230FD00FD0B13280000080058
:10002E002100C51B1D2820000C131F2820000C17B3
:10003E002100451B252820000C12272820000C1615
:10004E002100C51A2D2820008C112F2820008C1578
:10005E002100451A352820000C11372820000C15D8
:10006E00210038183D2820000C143F2820000C10C9
:10007E008C1411208C102100C519482820000C1357
:10008E004A2820000C1721004519502820000C1278
:10009E00522820000C162100C518582820008C115B
:1000AE005A2820008C1521004518602820000C11BC
:1000BE00622820000C1521003818682820000C1426
:1000CE006A2820000C108C1411208C102100381C72
:0A00DE007228082073280320080090
:1000E800210038104408C5001720210038140800E2
:1000F8002000F8010830FC00700DF80D7408F802B3
:1001080003188828F8070310F00DFC0B8028080056
:100118002100BE01C001C1011030C20004304102FB
:100128000318C328F03020008D008030F000003024
:10013800F1000D30700786000030713D8700210006
:100148004209F00070088100112011200F302000B2
:100158000D05F00070082100BF0070080319BE28C3
:100168004008BE003F080319BC28BF36BE0AB6289F
:100178000430C100C2350430C007C10A92283E08C5
:04018800F00008007B
:10018C002100C101033041020318D62841083F0762
:10019C0086000030403D870020308100C10AC8280D
:1001AC0041083F0786000030403D87008101C103B4
:1001BC0041083F07C2000030403DC3000A30F40044
:1001CC003E08F0007C207808F0003030F007210069
:1001DC004208860043088700700881000A30F4004A
:1001EC003E08F0007C2070082100BE007008003A28
:0C01FC00031D01290329C103DE280800AF
:10020800152980302100BE002729C030BE002729CB
:100218009430BE002729D430BE0027298030BE0084
:10022800272921003E08013A031905293E08023A08
:10023800031909293E08033A03190C293E08043A10
:1002480003190F2912293F03F0003E08F007700830
:10025800BE007008C500172021003810C2014208EE
:10026800400784000030413D8500000803194729F4
:100278004208400784000030413D85000008C40062
:0A0288007420C20A3329381408005C
:100292002100BD018C207008BD007008003A0319CE
:1002A2009E2A0B302000EE000030EF000B302100C0
:1002B200BE00B430BF000030C000C6200130BE0016
:1002C2000830BF00B430C0000030C1000421492A08
:1002D2006430BB000030BC000230BE000830BF00FA
:1002E2003E30C0000030C1000421892A2C30BB00FE
:1002F2000130BC000230BE000830BF004D30C000EB
:100302000030C1000421892ABC30BB000230BC008D
:100312000230BE000830BF004830C0000030C100CB
:100322000421892A2030BB000330BC000230BE0009
:100332000830BF004330C0000030C1000421892AC8
:10034200E830BB000330BC000230BE000830BF0002
:100352002A30C0000030C1000421892ADC30BB00F1
:100362000530BC000230BE000830BF002530C0009E
:100372000030C1000421892AD030BB000730BC0004
:100382000230BE000830BF002030C0000030C10083
:100392000421892AC430BB000930BC000230BE00EF
:1003A2000830BF003930C0000030C1000421892A62
:1003B200AC30BB000D30BC000230BE000830BF00C4
:1003C2003430C0000030C1000421892AA030BB00B3
:1003D2000F30BC000230BE000830BF002F30C0001A
:1003E2000030C1000421892A8830BB001330BC00D0
:1003F2000230BE000830BF00A030C0000030C10093
:100402000421892A7030BB001730BC000230BE00C4
:100412000830BF006930C0000030C1000421892AC1
:100422006430BB001930BC000230BE000830BF008F
:100432006430C0000030C1000421892A5830BB005A
:100442001B30BC000230BE000830BF00AF30C0001D
:100452000030C1000421892A4C30BB001D30BC0091
:100462000230BE000830BF00AA30C0000030C10018
:100472000421892A4030BB001F30BC000230BE007C
:100482000830BF00A530C0000030C1000421892A15
:100492003D08013A031969293D08023A03197729EF
:1004A2003D08033A031985293D08043A03199329A3
:1004B2003D08053A0319A1293D08063A0319AF2957
:1004C2003D08073A0319BD293D08083A0319CB290B
:1004D2003D08093A0319D9293D080A3A0319E729BF
:1004E2003D080B3A0319F5293D080C3A0319032A72
:1004F2003D080D3A0319112A3D080E3A03191F2A25
:100502003D080F3A03192D2A3D08103A03193B2AD8
:100512000A30FC005830FD00FD0B8D2AFC0B8D2AA1
:1005220000003B08F0003C08F100F136F00C7008C6
:0C0532002000DD007108DE009E2A080099
:10053E008030F000803021003A067002031DA92A97
:10054E003908003C0318BB2A0A30FC005830FD0065
:10055E00FD0BAF2AFC0BAF2A000049210130210010
:0A056E00B9020030BA3B9F2A0800D2
:100578008030F0000030F1000D3070078600003048
:0A058800713D8700FF30810008007C
:1005920021008C100C100C118C110C120C13200069
:1005A2008C100C100C130C128C110C11082008204A
:1005B20008208C150C158C1411208C1008208C141A
:1005C20011208C1008208C1411208C1008200C1182
:1005D2008C1411208C1008208C1411208C108C117A
:1005E2000C178C1411208C1008200C130C158C1471
:1005F20011208C100C118C1411208C1008208C14DA
:1006020011208C100C158C1411208C1008200C1148
:100612008C1411208C100C170C168C150C158C14C4
:0C06220011208C10082021003814080062
:10062E0012001E00F003031D172BF103031D172BE1
:02063E000800B2
:10064000D62370302100990023008C018D01C9222E
:100650000130C50017200C302100C50017200130E3
:100660002100BE000130BF005530C0000030C10085
:1006700004210230BE000130BF005230C000003003
:10068000C1000421BC228C1322008C1702302100EF
:10069000BE000830BF005F30C0000030C100042140
:1006A000803022008C0620005D082100B900200067
:1006B0005E082100BA009F222000EE01EF01210018
:1006C000BE01B430BF000030C000C6200130BE0003
:1006D0000830BF00B430C0000030C1000421502BEE
:0206E000702B7D
:1007AC0074308400833085004E30F0000130F1004D
:1007BC0020308600003087001723C230840083303D
:1007CC0085001430F0000130F100A03086000030BC
:0607DC008700172308004E
:0A06E8003234303430343034003442
:0A06F2003134353430343034003434
:0A06FC00313430343034303400342F
:0A0706003434303430343034003421
:0A0710003334353430343034003413
:0A071A00323435343034303400340A
:0A0724003134303430342034003416
:0A072E003834303430342034003405
:0A07380037343034303420340034FC
:0A07420033343034303420340034F6
:06074C006D34733400342B
:100752005434453443344C34413444344F340034FB
:0407620032340034F9
:0A07660031343034303420340034D4
:0A07700036343534303430340034B0
:0A077A0036343034303430340034AB
:0A07840035343034303430340034A2
:0A078E003834303430343034003495
:0A0798003734353430343034003487
:0A07A2003734303430343034003482
:020000040001F9
:04000E00C43F1317C1
:00000001FF
