:02000000582A7C
:10000600200038082400910014180A28072811082F
:04001600F0000800EE
:10001A002000FB01FA01F901F801A001730DF80DA6
:10002A007408F8027508031C750FF9027608031C98
:10003A00760FFA027708031C770FFB020001031CF4
:10004A000130A002F30D0730FC00730DF80DF90D15
:10005A00FA0DFB0DA00D7408731C4528F8027508EB
:10006A00031C750FF9027608031C760FFA0277084B
:10007A00031C770FFB020001031C0130A002562863
:10008A00F80775080318750FF90776080318760F2D
:10009A00FA0777080318770FFB07000103180130E6
:1000AA00A007F30DFC0B2A28720DF80DF90DFA0DB5
:1000BA00FB0DA00D7408731C7428F8027508031C44
:1000CA00750FF9027608031C760FFA027708031CEB
:1000DA00770FFB020001031C0130A0028528F807F4
:1000EA0075080318750FF90776080318760FFA07CB
:1000FA0077080318770FFB07000103180130A007E0
:10010A00F20D0730FC00720DF80DF90DFA0DFB0D1A
:10011A00A00D7408721CA328F8027508031C750F39
:10012A00F9027608031C760FFA027708031C770F88
:10013A00FB020001031C0130A002B428F80775086D
:10014A000318750FF90776080318760FFA07770868
:10015A000318770FFB07000103180130A007F20DFF
:10016A00FC0B8828710DF80DF90DFA0DFB0DA00D89
:10017A007408721CD228F8027508031C750FF9025C
:10018A007608031C760FFA027708031C770FFB0226
:10019A000001031C0130A002E328F80775080318C0
:1001AA00750FF90776080318760FFA077708031808
:1001BA00770FFB07000103180130A007F10D073084
:1001CA00FC00710DF80DF90DFA0DFB0DA00D740868
:1001DA00711C0129F8027508031C750FF9027608CB
:1001EA00031C760FFA027708031C770FFB02000143
:1001FA00031C0130A0021229F80775080318750FAD
:10020A00F90776080318760FFA0777080318770FA5
:10021A00FB07000103180130A007F10DFC0BE628CB
:10022A00700DF80DF90DFA0DFB0DA00D7408711C77
:10023A003029F8027508031C750FF9027608031CA9
:10024A00760FFA027708031C770FFB020001031CE2
:10025A000130A0024129F80775080318750FF9073C
:10026A0076080318760FFA0777080318770FFB0743
:10027A00000103180130A007F00D0730FC00700DD3
:10028A00F80DF90DFA0DFB0DA00D7408701C5F290D
:10029A00F8027508031C750FF9027608031C760F1D
:1002AA00FA027708031C770FFB020001031C0130D6
:1002BA00A0027029F80775080318750FF907760860
:1002CA000318760FFA0777080318770FFB07000160
:1002DA0003180130A007F00DFC0B4429701883297C
:1002EA007408F80775080318750FF90776080318D4
:0E02FA00760FFA0777080318770FFB07080046
:10030800FF302000A100FF30A200FF30A300FF3023
:10031800A4000330A5000030A6003830A700003044
:10032800A8002400951221000D110D128D1424002F
:0A033800950140309400951608006E
:1003420020008D123608B800032020003708B800BC
:08035200032020008D160800B5
:10035A0020008D120C30B800032001302000B800B4
:08036A00032020008D1608009D
:1003720001302000B200B301B401B5013008003CE5
:10038200031DCD292F08003C031DCD292E08003C5A
:10039200031DCD292D08003C031CF1293208F10070
:1003A2003308F2003408F3003508F4003108F10292
:1003B2000030F23BF33BF43B8030F00080307406B7
:1003C2007002031DEE297308003C031DEE2972081A
:1003D200003C031DEE297108003C0318F1292E2A66
:1003E2008D123208B80003200A30F400F501F6013C
:1003F200F70120002D08F0002E08F1002F08F2006E
:100402003008F3000D207808F0007908F1007A082E
:10041200F2007B08F3007008B800032020008D165C
:100422000A30F400F501F601F7012D08F0002E085C
:10043200F1002F08F2003008F3000D207008AD0023
:100442007108AE007208AF007308B0000130B20745
:0C0452000030B33DB43DB53DBF290800AB
:10045E0012001E00F003031D2F2AF103031D2F2A85
:02046E00080084
:10047000842109302000B600FF30B700A1210A30E6
:10048000B6000F30B700A1210B30B6000730B7001F
:10049000A1210C30B6000130B700A1210F30B60009
:1004A0000130B700A1210F30B600B701A12108002B
:1004B0007030210099008D0123008D0120008D12E4
:1004C00021008D1284213822AD210530FB000F3030
:1004D000FC00F130FD00FD0B6B2AFC0B6B2AFB0BC3
:1004E0006B2A4E30A9006130AA00BC30AB0000304E
:1004F000AC0005302C02031D872AF5302B02031DAA
:10050000872AE0302A02031D872AFF3029020318B8
:10051000A72A2908AD002A08AE002B08AF002C0836
:10052000B0000730B100B9212930FB009630FC0043
:100530007F30FD00FD0B9A2AFC0B9A2AFB0B9A2AAE
:100540000130A9070030AA3DAB3DAC3D792A712AA4
:02055000A82AD7
:020000040001F9
:04000E00E23F1316A4
:00000001FF
