:020000009A2A3A
:1000060020000C140C100230FD00FD0B0828000027
:020016000800E0
:1000180020000C140230FD00FD0B102800000C100D
:020028000800CE
:10002A0003200320032003200320032003200320AE
:10003A00032003200320032003200320032003209E
:10004A000C200C200C200C200C200C200C200C2046
:02005A0008009C
:10005C00032003200320032003200320032003207C
:10006C000C20032003200320032003200320032063
:10007C000C20032003200320032003200320032053
:02008C0008006A
:10008E000C20032003200320032003200320032041
:10009E00032003200320032003200320032003203A
:1000AE000C20032003200320032003200320032021
:0200BE00080038
:1000C0000C2003200320032003200320032003200F
:1000D0000C200320032003200320032003200320FF
:1000E00003200320032003200320032003200320F8
:0200F000080006
:1000F20003200320032003200320032003200320E6
:1001020003200320032003200320032003200320D5
:1001120003200320032003200320032003200320C5
:020122000800D3
:100124007920792079207920792079207920792003
:100134007920792060206020602060206020602089
:100144007920792060206020602060206020602079
:100154007920792060206020602060206020602069
:1001640079207920792079207920792060206020F5
:100174007920792060206020602060206020602049
:100184007920792060206020602060206020602039
:100194007920792079207920792079207920792093
:0201A400080051
:1001A6007920792047204720472047207920792049
:1001B60079207920792047204720792079207920D5
:1001C6007920792079207920792079207920792061
:1001D60079207920472079207920472079207920B5
:1001E60079207920472079207920472079207920A5
:1001F60079207920472047204720472079207920F9
:1002060079207920472047204720472079207920E8
:1002160079207920472047204720472079207920D8
:020226000800CE
:1002280079207920792079207920792079207920FE
:100238007920792060206020602060207920792052
:100248007920792060206020602060207920792042
:100258007920792060206020602060207920792032
:1002680079207920792079207920792079207920BE
:100278007920792060206020602060207920792012
:100288007920792060206020602060207920792002
:1002980079207920602060206020602079207920F2
:0202A80008004C
:1002AA00792079207920792079207920792079207C
:1002BA007920792047204720472047204720472098
:1002CA007920792047204720472047204720472088
:1002DA007920792047204720472047204720472078
:1002EA0079207920792079207920792047204720A0
:1002FA007920792047204720472047204720472058
:10030A007920792047204720472047204720472047
:10031A007920792047204720472047204720472037
:02032A000800C9
:10032C0079207920792079207920792079207920F9
:10033C0079207920152015201520152015207920DD
:10034C007920792015201520152015201520152031
:10035C007920792015201520152015201520152021
:10036C007920792015201520792079207920792081
:10037C00792079201520152015201520152079209D
:10038C00792079201520152015201520152079208D
:10039C007920792079207920792079207920792089
:0203AC00080047
:1003AE0079207920792079207920792079201520DB
:1003BE0079207920152015201520152079207920F7
:1003CE00792079201520152015201520152079204B
:1003DE00792079201520152015201520152079203B
:1003EE00792079201520152015201520152079202B
:1003FE00792079201520152015201520152079201B
:10040E0079207920152015201520152079207920A6
:10041E00792079207920792079207920792015206A
:02042E000800C4
:1004300079207920792079207920792079202E203F
:10044000792079202E202E202E202E207920792010
:10045000792079202E202E202E202E202E2079204B
:10046000792079202E202E202E202E202E2079203B
:10047000792079202E202E202E202E202E2079202B
:10048000792079202E202E202E202E202E2079201B
:10049000792079202E202E202E202E2079207920C0
:1004A00079207920792079207920792079202E20CF
:0204B000080042
:1004B2007920792079207920792079207920792072
:1004C200792079202E202E202E202E20792079208E
:1004D200792079202E202E202E202E20792079207E
:1004E200792079202E202E202E202E20792079206E
:1004F2007920792079207920792079207920792032
:10050200792079202E202E202E202E20792079204D
:10051200792079202E202E202E202E20792079203D
:10052200792079202E202E202E202E20792079202D
:020532000800BF
:1005340021008C0123008C01F3302100990022005A
:100544000C108530FD00FD0BA52AD3201421552164
:1005540092208530FD00FD0BAD2A2930FB0096303A
:10056400FC007F30FD00FD0BB52AFC0BB52AFB0B0C
:10057400B52AD7215922962118228530FD00FD0B7A
:10058400C12A2930FB009630FC007F30FD00FD0BB2
:10059400C92AFC0BC92AFB0BC92AD3205521D72110
:1005A40096218530FD00FD0BD52A2930FB009630BD
:1005B400FC007F30FD00FD0BDD2AFC0BDD2AFB0B6C
:1005C400DD2AD7215922D32014218530FD00FD0BCB
:1005D400E92A2930FB009630FC007F30FD00FD0B3A
:0E05E400F12AFC0BF12AFB0BF12AA72AF82AB8
:020000040001F9
:04000E00843F131602
:00000001FF
