:020000007D2D54
:1000080080318B1C0F2822008D172000A10A0319AC
:10001800A20A8B168B100B1D1F2822008D1300308F
:100028002000A3070130A43D2508A3020030A43B0B
:08003800250895000B110900D9
:10004000210053082400910014182728242811089F
:04005000F0000800B4
:1000540023009E182F2800002A282100530823007B
:040064009A000800F6
:1000680021005308240099001C183B283828190837
:04007800F00008008C
:10007C00240014194B281F301605F1007108003AA2
:0E008C00031D4B280130F0004C28F001080045
:0A009A0071088A0070088200080057
:1000A40020005A082100CF0020005B082100D00066
:1000B40020005C082100D10020005D082100D2004E
:1000C400CD01CE014E08123C031D6A284D088E3C1A
:1000D400031C76283E207008031971287628210015
:1000E400CD0A0319CE0A6428210012304E02031DE2
:1000F4007D288F304D02031C82287B30F000AD2810
:10010400240016142400161CAC2820005A085B0492
:100114005C045D040319AB2821004F08500451040A
:100124005204031DA42836088600370887000530CA
:10013400810041313408F0003508F1004D200130D0
:10014400F000AD2801302100CF020030D03BD13B7C
:08015400D23B8428F0010800F1
:10015C002000911121004D082400910020005A0824
:10016C002100CE0020005B082100CF0020005C089D
:10017C002100D00020005D082100D1002400141DB6
:10018C00EC2820005A085B045C045D040319EB287E
:10019C0021004E084F0450045104031DE428360876
:1001AC008600370887000430810041313408F000A4
:1001BC003508F1004D200130F0002B2901302100D1
:1001CC00CE020030CF3BD03BD13BC42820005A0894
:1001DC002100CE0020005B082100CF0020005C082D
:1001EC002100D00020005D082100D10020009119D1
:1001FC0023295A085B045C045D040319222921009D
:10020C004E084F0450045104031D1B293608860068
:10021C00370887000430810041313408F00035087C
:10022C00F1004D200130F0002B2901302100CE02CD
:10023C000030CF3BD03BD13BFC282400161B282997
:0C024C00F0012B2916150230F00008000C
:0602580024001615080049
:10025E007B15FB1F39290130F300F201F101F0018A
:08026E00FA0DF20CFF3008004C
:08027600FA1FF213003008002A
:0E027E00F201F101F001F801F3010030080077
:10028C002100CC01F0304905CA004908CB00CB3520
:10029C00CB35CB35CB35F030CB0552203E204E3014
:1002AC002100CD00AE203E2021004C084A04CD0098
:1002BC004D15CD15AE203E200530FD00FD0B6429FB
:1002CC0021004C084A04CD00CD15AE203E2005304F
:1002DC00FD00FD0B6F2921004C084B04CD004D1582
:1002EC00CD15AE203E200530FD00FD0B7B292100F5
:1002FC004C084B04CD00CD15AE203E202C21210006
:10030C004908013A031D93291530FC00C630FD0045
:0C031C00FD0B8E29FC0B8E290000080050
:10032800FB14FB1F9E29FF30F300F200F100F000E0
:08033800FA0DF20CFF30080081
:100340002000F801F9011030FC00710DF80DF90DD5
:100350007408F8027508031C750FF9020318B72911
:100360007408F80775080318750FF9070310F00DE6
:08037000F10DFC0BA5290800AA
:100378007B14FB1FC729F201FA1FFF30F200F100BE
:0A038800F000FA0DF20CFF3008003F
:1003920001302100C700E9294303F0007008803EC4
:1003A200C9004621F9294303F0007008C03EC90084
:1003B2004621F9294303F0007008943EC900462102
:1003C200F9294303F0007008D43EC9004621F929F7
:1003D2004208013A0319CD294208023A0319D429E5
:1003E2004208033A0319DB294208043A0319E229B5
:1003F200F0304405C5004408C600C635C635C635CA
:10040200C635F030C60552203E204E302100CD00C8
:10041200AE203E20210047084504CD004D15CD15E4
:10042200AE203E200530FD00FD0B152A21004708B5
:100432004504CD00CD15AE203E200530FD00FD0B5C
:10044200202A210047084604CD004D15CD15AE20C7
:100452003E200530FD00FD0B2C2A210047084604F2
:0C046200CD00CD15AE203E202C2108005E
:10046E002100C601053046020318472A46084407F4
:10047E0086000030453D870020308100C60A392AAB
:10048E004608440786000030453D87008101C603BB
:10049E0046084407C7000030453DC8000A30F40046
:1004AE00F5014208F0004308F100A0217808F000A1
:1004BE007908F1003030F00721004708860048081F
:1004CE008700700881000A30F400F5014208F00040
:1004DE004308F100A02170082100C2007108C3007A
:1004EE0000307106031D7D2A00307006031D802A20
:0804FE00822AC6034F2A080000
:10050600A0017208031D982A7108F2007008F10014
:10051600F001A0157208031D982A7108F200F10176
:10052600A011201672080319A62A2008F302031D3B
:10053600031CAA2A0310F21BAE2AF00DF10DF20DD0
:10054600F30B9E2AAA2A0130FC003F21B12A023071
:0E055600FC002F21B12A0430FC003B210800DC
:100564007C18E82AFC18B92A7C19072BB22AA001A6
:100574007208031DD92A7108F2007008F100780886
:10058400F000F801A0157208031DD92A7108F200C1
:100594007008F100F001A01120167208031DD92A79
:1005A4007108F200F101A01572080319FB2A200852
:1005B400F302031D031CFF2A0310F21BE82AF80DA3
:1005C400F00DF10DF20DF30BDF2AFF2A7B1B701CDB
:1005D400032BF81F032BF00A0319F10A0319F20A7B
:1005E400031D032BF20CF10CF00CF30A0319072B77
:1005F400032B0130FC003F210A2B0230FC002F2189
:100604000A2B0430FC003B210A2B0830FC00942107
:0406140000000800DA
:1006180020007008F8007108F000F101F201F30100
:10062800FB01FC019630F300FA017008F10078082C
:0A063800F000F801F201832208002F
:100642002000FB01730803195D2B7208FA00F217F0
:100652008E30F302F31F602BF309F30A08307302A2
:10066200031C432BF300F10D7208F100F201083074
:100672007302031C432BF300F10DF1017308031DF8
:1006820003104B2B730803194B2B0310F20CF10CC4
:10069200F30B462B7B1B711C552B031C552BF10AAC
:1006A2000319F20AF21B6C2BFA1F6F2BF209F109E4
:1006B200F10A0319F20A6F2BF201F1016F2B7B147D
:1006C200FB1F722BF201FA1F722BFF30F200F100B6
:1006D200FA0DF20C722B0130FC00742B0030FC007E
:1006E200742BFF30FC00FC080319782BBC21710825
:0806F200F0007208F10008009D
:1006FA002100BE01BF013808C0003908C10080309E
:10070A003906F00080307002031D8D2B003038024C
:10071A0003189B2B0130BE000030BF003808003C94
:10072A00C0003908031C013EC101C1024008C200D1
:10073A004108C3003A08C4003B08C5003722063006
:10074A00BC000030BD003D08003C031DAE2B3C0838
:10075A00003C0318C92B3C083A0786003D083B3D7C
:10076A00870001303C02F00000303D3BF100700888
:10077A003A07840071083B3D85000008810001307A
:10078A00BC020030BD3BA82B3A0886003B08870014
:10079A00203081003E083F040319EF2BBC01BD0144
:1007AA003C083A0784003D083B3D85000008203A92
:1007BA00031DE32BBC0A0319BD0AD52B0130BC0269
:1007CA000030BD3B3C083A0786003D083B3D8700A8
:0607DA002D308100080033
:1007E000200072087606A000F801F901730877026C
:1007F000031C122C7708FD007308F7007D08F30036
:100800007608FD007208F6007D08F2007508FD000C
:100810007108F5007D08F1007408FD007008F4000F
:100820007D08F000770803198B2C7208FA00F21784
:10083000F61777087302F7000319452C0830770282
:10084000031C3B2CF7007408F9007508F4007608C7
:10085000F500F60108307702031C3B2CF700740802
:10086000F9007508F400F50108307702031C3B2CF1
:100870007A08F2008B2C77080319452C0310F60C2C
:10088000F50CF40CF90CF70B3E2CA01F522CF909B7
:10089000F409F509F609F90A0319F40A0319F50A26
:1008A0000319F60A7908F80774080318740FF0079B
:1008B00075080318750FF10776080318760FF2070D
:1008C000A01B6B2C031C7B2CF20CF10CF00CF80C15
:1008D000F30F7B2C872C03187F2CF809F009F10902
:1008E000F209F80A0319F00A0319F10A0319F20AC6
:1008F0008030FA06832C0130FC00B2228D2C0230AD
:10090000FC00B2228D2C0430FC0083228D2C083098
:0E091000FC0094218D2C0030FC00000008003B
:10091E0012001E00F003031D8F2CF103031D8F2CFC
:02092E000800BF
:100930003E302100B0000030B1000030B200003085
:10094000B3005230AC000030AD000030AE000030DB
:10095000AF00FF30A000FF30A1000030A200003047
:10096000A300FF302000EC00FF30ED00FF30EE0070
:10097000FF30EF00AE302100A8000030A900CD30DC
:10098000AA000030AB002C30A4000130A5000030DC
:10099000A6000030A70024001413941321008D1426
:0A09A0000D16383024009500080001
:1009AA002100B80152203E204E302100CD00AE2059
:1009BA003E200230FB003830FC00AD30FD00FD0B5C
:1009CA00E42CFC0BE42CFB0BE42C30302100380423
:1009DA00CD004D15CD15AE203E208530FD00FD0B16
:1009EA00F42C303021003804CD00CD15AE203E2045
:1009FA006830FC00E430FD00FD0B012DFC0B012DDD
:100A0A000000303021003804CD004D15CD15AE2040
:100A1A003E208530FD00FD0B102D303021003804BA
:100A2A00CD00CD15AE203E206830FC00E430FD003C
:100A3A00FD0B1D2DFC0B1D2D00003030210038044C
:100A4A00CD004D15CD15AE203E208530FD00FD0BA5
:100A5A002C2D303021003804CD00CD15AE203E209B
:100A6A006830FC00E430FD00FD0B392DFC0B392DFC
:100A7A000000203021003804CD004D15CD15AE20E0
:100A8A003E208530FD00FD0B482D20302100380422
:100A9A00CD00CD15AE203E202C216830FC00E4307C
:100AAA00FD00FD0B562DFC0B562D000028302100B1
:0C0ABA00C90046210630C9004621080092
:100AC60021003A0884003B088500000803197C2DA4
:100AD6003808C2003908C3003A0884003B0885007C
:100AE6000008C400C9212100B90ABA0A0319BB0AC1
:040AF600632D080064
:100AFA009A26210019109910991119169916191781
:100B0A00991723008D01013021008D0023008C01EB
:100B1A0021000C16EF3095000A3024009200982428
:100B2A00D5240C30C90046210130C90046210130C4
:100B3A00B8000130B9003630BA000030BB00632576
:100B4A000230B8000130B9002630BA000030BB00CC
:100B5A0063250330B8000130B9004B30BA000030C9
:100B6A00BB0063250330B8000E30B9004630BA0026
:100B7A000030BB00632520002508950090308B00CB
:100B8A0022008D1620002108F0002208F1000C2313
:100B9A007008E2007108E3007208E4007308E500D7
:100BAA00212370082100B8007108B9006630BA0024
:100BBA000030BB007D230130B8000830B900663030
:100BCA00BA000030BB00632520002308F000240887
:100BDA00F1000C237008E2007108E3007208E400D7
:100BEA007308E500212370082100B8007108B900D4
:100BFA006630BA000030BB007D230230B8000830EE
:100C0A00B9006630BA000030BB00632520005E08D8
:100C1A00E2005F08E3006008E4006108E5005E089E
:100C2A00F0005F08F1006008F2006108F300212378
:100C3A0070082100B8007108B9006630BA000030A7
:100C4A00BB007D230330B8000830B9006630BA0013
:100C5A000030BB00632522008D122F30FC00A53026
:100C6A00FD00FD0B362EFC0B362E20005E08F00030
:100C7A005F08F1006008F2006108F3000030F40038
:100C8A000030F5002030F6008230F700F0237008BB
:100C9A00DE007108DF007208E0007308E100C52D6C
:020CAA00552EC5
:100D340059308400863085004130F0000130F100E4
:0C0D440021308600003087008F2408005A
:040CB20000340034D6
:040CB60000340034D2
:020CBA00FD3407
:100CBC0042344F344C345334413454342034203483
:100CCC002034203420342034203420342034003498
:100CDC0042344F344C34533441344934203420346E
:100CEC002034203420342034203420342034003478
:0A0CFC00203420346D3453340034EA
:100D06005434493445344D3450344F34203420342F
:0E0D16002034203420342034203420340034A3
:080D24000034003400340034F7
:080D2C000034003400340034EF
:020000040001F9
:04000E00A43F1317E1
:00000001FF
