:02000000AD2928
:0C0006000E30FD00FD0B05280000080076
:0E001200F201F101F001F801F30100300800E5
:100020007B15FB1F1A280130F300F201F101F001EA
:08003000FA0DF20CFF3008008C
:08003800FA1FF213003008006A
:06004000FB15FF30080073
:10004600833021009D0520002C08F000F035F035A6
:10005600700821009D0403209D149D1C3328302820
:100066001C08F100F0011B08F0040030F104080040
:10007600A0017208031D50287108F2007008F100F3
:10008600F001A0157208031D50287108F200F10155
:10009600A0112016720803195E282008F302031D1A
:1000A600031C62280310F21B6628F00DF10DF20DF9
:1000B600F30B562862280130FC000920692802301B
:0E00C600FC00102069280430FC001C200800FB
:1000D400FB14FB1F7428FF30F300F200F100F00062
:0800E400FA0DF20CFF300800D8
:1000EC007B14FB1F8128F201FA1FFF30F200F10094
:0A00FC00F000FA0DF20CFF300800CE
:1001060023302000A1000030A2002C30A3000030D4
:0E011600A400F03021009E009D011D14080081
:100124002000FB01FC01FA0173080319BE28FA132D
:10013400F2178630F302F31BA2280319A228C02861
:10014400F309F30A08307302031CAF28F300F20D1D
:10015400F2017308031D0310B62873080319B628A7
:100164000310F20CF30BB2287B1B721CBE28031C79
:10017400BE28F20A0319C528F101C8287B14FB1F05
:10018400CB28F101CB280130FC00CD280030FC0045
:10019400CD28FF30FC00FC080319D1287620720812
:0401A400F00008005F
:1001A80020007008F8007108F000F101F201F30175
:1001B800FB01FC019630F300FA017008F1007808A1
:0A01C800F000F801F2013B200800EE
:1001D2007408003A031D02297508003A031D02291A
:1001E2007608003A031D02297708003A031D022906
:1001F200FF30F000FF30F1007F30F200FF30F300FB
:100202009C29200077080319902973080319932960
:10021200720876068039FA00F217F617A001720802
:10022200F8007108FC007008FD007408FD027508F2
:10023200031C750FFC027608031C760FF802F80106
:10024200FC01FD01031C2C290310F20CF10CF00C33
:10025200F80C0130A0007708F302031C36297E3027
:100262002007F307031896293B297E302007F3075E
:10027200031C99291830FA07FD0DFC0DF80DF00D3D
:10028200F10DF20DA00D7408F0027508031C750F34
:10029200F1027608031C760FF202760DA004201CF0
:1002A20054297D145F297408F00775080318750F27
:1002B200F10776080318760AF2077D10FA031F3059
:1002C2007A05031D3D297B1B7D1C86290310F00D39
:1002D200F10DF20DA00D7408F0027508031C750FE4
:1002E200F1027608031C760FF202760D2004013922
:1002F200FD070318FC0A0319F80A031D8629F80CE6
:10030200FC0CFD0CF30A03199629FA1FF81378085E
:10031200F2007C08F1007D08F00000309B290130DA
:1003220020209B29023009209B2904306A209B2926
:08033200083010200000080053
:0E033A00832020002B08AC0023201D1008009B
:1003480012001E00F003031DA429F103031DA429B4
:0203580008009B
:10035A0021009914191019179916191699112300C1
:10036A008C018C1421008C140C1422009801990120
:10037A009817981601302000AB009D2170082000C4
:10038A00A9007108AA00D4200030F4000030F5005A
:10039A000030F6008430F700E9207008A5007108E3
:1003AA00A6007208A7007308A8009220700822000D
:0603BA009900BF29DF29B4
:020000040001F9
:04000E00823F131604
:00000001FF
